{
  "_format": "hh-sol-artifact-1",
  "contractName": "Contract",
  "sourceName": "contracts/Contract.sol",
  "abi": [
    {
      "inputs": [
        {
          "internalType": "address",
          "name": "_nftaddress",
          "type": "address"
        },
        {
          "internalType": "address payable",
          "name": "_seller",
          "type": "address"
        }
      ],
      "stateMutability": "nonpayable",
      "type": "constructor"
    },
    {
      "inputs": [
        {
          "internalType": "uint256",
          "name": "_nftID",
          "type": "uint256"
        }
      ],
      "name": "bought",
      "outputs": [],
      "stateMutability": "payable",
      "type": "function"
    },
    {
      "inputs": [
        {
          "internalType": "uint256",
          "name": "",
          "type": "uint256"
        }
      ],
      "name": "buyer",
      "outputs": [
        {
          "internalType": "address",
          "name": "",
          "type": "address"
        }
      ],
      "stateMutability": "view",
      "type": "function"
    },
    {
      "inputs": [
        {
          "internalType": "uint256",
          "name": "_nftID",
          "type": "uint256"
        },
        {
          "internalType": "address",
          "name": "_buyer",
          "type": "address"
        }
      ],
      "name": "declareBuyer",
      "outputs": [],
      "stateMutability": "nonpayable",
      "type": "function"
    },
    {
      "inputs": [],
      "name": "getBalance",
      "outputs": [
        {
          "internalType": "uint256",
          "name": "",
          "type": "uint256"
        }
      ],
      "stateMutability": "view",
      "type": "function"
    },
    {
      "inputs": [
        {
          "internalType": "uint256",
          "name": "",
          "type": "uint256"
        }
      ],
      "name": "isListed",
      "outputs": [
        {
          "internalType": "bool",
          "name": "",
          "type": "bool"
        }
      ],
      "stateMutability": "view",
      "type": "function"
    },
    {
      "inputs": [
        {
          "internalType": "uint256",
          "name": "_nftID",
          "type": "uint256"
        },
        {
          "internalType": "uint256",
          "name": "_purchasePrice",
          "type": "uint256"
        },
        {
          "internalType": "string",
          "name": "_email",
          "type": "string"
        },
        {
          "internalType": "string",
          "name": "_location",
          "type": "string"
        },
        {
          "internalType": "int256",
          "name": "_phnu",
          "type": "int256"
        }
      ],
      "name": "list",
      "outputs": [],
      "stateMutability": "payable",
      "type": "function"
    },
    {
      "inputs": [],
      "name": "nftaddress",
      "outputs": [
        {
          "internalType": "address",
          "name": "",
          "type": "address"
        }
      ],
      "stateMutability": "view",
      "type": "function"
    },
    {
      "inputs": [
        {
          "internalType": "uint256",
          "name": "",
          "type": "uint256"
        }
      ],
      "name": "purchasePrice",
      "outputs": [
        {
          "internalType": "uint256",
          "name": "",
          "type": "uint256"
        }
      ],
      "stateMutability": "view",
      "type": "function"
    },
    {
      "inputs": [],
      "name": "seller",
      "outputs": [
        {
          "internalType": "address payable",
          "name": "",
          "type": "address"
        }
      ],
      "stateMutability": "view",
      "type": "function"
    },
    {
      "stateMutability": "payable",
      "type": "receive"
    }
  ],
  "bytecode": "0x60806040523480156200001157600080fd5b506040516200122c3803806200122c83398181016040528101906200003791906200016f565b816000806101000a81548173ffffffffffffffffffffffffffffffffffffffff021916908373ffffffffffffffffffffffffffffffffffffffff16021790555080600160006101000a81548173ffffffffffffffffffffffffffffffffffffffff021916908373ffffffffffffffffffffffffffffffffffffffff1602179055505050620001b6565b600080fd5b600073ffffffffffffffffffffffffffffffffffffffff82169050919050565b6000620000f282620000c5565b9050919050565b6200010481620000e5565b81146200011057600080fd5b50565b6000815190506200012481620000f9565b92915050565b60006200013782620000c5565b9050919050565b62000149816200012a565b81146200015557600080fd5b50565b60008151905062000169816200013e565b92915050565b60008060408385031215620001895762000188620000c0565b5b6000620001998582860162000113565b9250506020620001ac8582860162000158565b9150509250929050565b61106680620001c66000396000f3fe60806040526004361061008a5760003560e01c806377fbc4ae1161005957806377fbc4ae14610154578063c5be388a14610191578063f48f659d146101ba578063fbbbd65b146101d6578063fcce4883146101f257610091565b806308551a531461009657806312065fe0146100c15780632827e5bb146100ec5780634dd4acaf1461011757610091565b3661009157005b600080fd5b3480156100a257600080fd5b506100ab61022f565b6040516100b8919061078c565b60405180910390f35b3480156100cd57600080fd5b506100d6610255565b6040516100e391906107c0565b60405180910390f35b3480156100f857600080fd5b5061010161025d565b60405161010e91906107fc565b60405180910390f35b34801561012357600080fd5b5061013e60048036038101906101399190610857565b610281565b60405161014b91906107fc565b60405180910390f35b34801561016057600080fd5b5061017b60048036038101906101769190610857565b6102b4565b60405161018891906107c0565b60405180910390f35b34801561019d57600080fd5b506101b860048036038101906101b391906108b0565b6102cc565b005b6101d460048036038101906101cf9190610a6c565b610322565b005b6101f060048036038101906101eb9190610857565b610515565b005b3480156101fe57600080fd5b5061021960048036038101906102149190610857565b61072b565b6040516102269190610b3a565b60405180910390f35b600160009054906101000a900473ffffffffffffffffffffffffffffffffffffffff1681565b600047905090565b60008054906101000a900473ffffffffffffffffffffffffffffffffffffffff1681565b60026020528060005260406000206000915054906101000a900473ffffffffffffffffffffffffffffffffffffffff1681565b60036020528060005260406000206000915090505481565b806002600084815260200190815260200160002060006101000a81548173ffffffffffffffffffffffffffffffffffffffff021916908373ffffffffffffffffffffffffffffffffffffffff1602179055505050565b600160009054906101000a900473ffffffffffffffffffffffffffffffffffffffff1673ffffffffffffffffffffffffffffffffffffffff163373ffffffffffffffffffffffffffffffffffffffff16146103b2576040517f08c379a00000000000000000000000000000000000000000000000000000000081526004016103a990610bb2565b60405180910390fd5b60008054906101000a900473ffffffffffffffffffffffffffffffffffffffff1673ffffffffffffffffffffffffffffffffffffffff166323b872dd600160009054906101000a900473ffffffffffffffffffffffffffffffffffffffff1630886040518463ffffffff1660e01b815260040161043193929190610c31565b600060405180830381600087803b15801561044b57600080fd5b505af115801561045f573d6000803e3d6000fd5b5050505083600360008781526020019081526020016000208190555060016004600087815260200190815260200160002060006101000a81548160ff0219169083151502179055506040518060600160405280848152602001838152602001828152506005600087815260200190815260200160002060008201518160000190816104ea9190610e75565b5060208201518160010190816105009190610e75565b50604082015181600201559050505050505050565b806002600082815260200190815260200160002060009054906101000a900473ffffffffffffffffffffffffffffffffffffffff1673ffffffffffffffffffffffffffffffffffffffff163373ffffffffffffffffffffffffffffffffffffffff16146105b7576040517f08c379a00000000000000000000000000000000000000000000000000000000081526004016105ae90610f93565b60405180910390fd5b600360008381526020019081526020016000205434146105d657600080fd5b6000600160009054906101000a900473ffffffffffffffffffffffffffffffffffffffff1673ffffffffffffffffffffffffffffffffffffffff164760405161061e90610fe4565b60006040518083038185875af1925050503d806000811461065b576040519150601f19603f3d011682016040523d82523d6000602084013e610660565b606091505b5050905060008054906101000a900473ffffffffffffffffffffffffffffffffffffffff1673ffffffffffffffffffffffffffffffffffffffff166323b872dd306002600087815260200190815260200160002060009054906101000a900473ffffffffffffffffffffffffffffffffffffffff16866040518463ffffffff1660e01b81526004016106f493929190610ff9565b600060405180830381600087803b15801561070e57600080fd5b505af1158015610722573d6000803e3d6000fd5b50505050505050565b60046020528060005260406000206000915054906101000a900460ff1681565b600073ffffffffffffffffffffffffffffffffffffffff82169050919050565b60006107768261074b565b9050919050565b6107868161076b565b82525050565b60006020820190506107a1600083018461077d565b92915050565b6000819050919050565b6107ba816107a7565b82525050565b60006020820190506107d560008301846107b1565b92915050565b60006107e68261074b565b9050919050565b6107f6816107db565b82525050565b600060208201905061081160008301846107ed565b92915050565b6000604051905090565b600080fd5b600080fd5b610834816107a7565b811461083f57600080fd5b50565b6000813590506108518161082b565b92915050565b60006020828403121561086d5761086c610821565b5b600061087b84828501610842565b91505092915050565b61088d816107db565b811461089857600080fd5b50565b6000813590506108aa81610884565b92915050565b600080604083850312156108c7576108c6610821565b5b60006108d585828601610842565b92505060206108e68582860161089b565b9150509250929050565b600080fd5b600080fd5b6000601f19601f8301169050919050565b7f4e487b7100000000000000000000000000000000000000000000000000000000600052604160045260246000fd5b610943826108fa565b810181811067ffffffffffffffff821117156109625761096161090b565b5b80604052505050565b6000610975610817565b9050610981828261093a565b919050565b600067ffffffffffffffff8211156109a1576109a061090b565b5b6109aa826108fa565b9050602081019050919050565b82818337600083830152505050565b60006109d96109d484610986565b61096b565b9050828152602081018484840111156109f5576109f46108f5565b5b610a008482856109b7565b509392505050565b600082601f830112610a1d57610a1c6108f0565b5b8135610a2d8482602086016109c6565b91505092915050565b6000819050919050565b610a4981610a36565b8114610a5457600080fd5b50565b600081359050610a6681610a40565b92915050565b600080600080600060a08688031215610a8857610a87610821565b5b6000610a9688828901610842565b9550506020610aa788828901610842565b945050604086013567ffffffffffffffff811115610ac857610ac7610826565b5b610ad488828901610a08565b935050606086013567ffffffffffffffff811115610af557610af4610826565b5b610b0188828901610a08565b9250506080610b1288828901610a57565b9150509295509295909350565b60008115159050919050565b610b3481610b1f565b82525050565b6000602082019050610b4f6000830184610b2b565b92915050565b600082825260208201905092915050565b7f4f6e6c792073656c6c65722063616e207573652074686973206d6574686f6400600082015250565b6000610b9c601f83610b55565b9150610ba782610b66565b602082019050919050565b60006020820190508181036000830152610bcb81610b8f565b9050919050565b6000819050919050565b6000610bf7610bf2610bed8461074b565b610bd2565b61074b565b9050919050565b6000610c0982610bdc565b9050919050565b6000610c1b82610bfe565b9050919050565b610c2b81610c10565b82525050565b6000606082019050610c466000830186610c22565b610c5360208301856107ed565b610c6060408301846107b1565b949350505050565b600081519050919050565b7f4e487b7100000000000000000000000000000000000000000000000000000000600052602260045260246000fd5b60006002820490506001821680610cba57607f821691505b602082108103610ccd57610ccc610c73565b5b50919050565b60008190508160005260206000209050919050565b60006020601f8301049050919050565b600082821b905092915050565b600060088302610d357fffffffffffffffffffffffffffffffffffffffffffffffffffffffffffffffff82610cf8565b610d3f8683610cf8565b95508019841693508086168417925050509392505050565b6000610d72610d6d610d68846107a7565b610bd2565b6107a7565b9050919050565b6000819050919050565b610d8c83610d57565b610da0610d9882610d79565b848454610d05565b825550505050565b600090565b610db5610da8565b610dc0818484610d83565b505050565b5b81811015610de457610dd9600082610dad565b600181019050610dc6565b5050565b601f821115610e2957610dfa81610cd3565b610e0384610ce8565b81016020851015610e12578190505b610e26610e1e85610ce8565b830182610dc5565b50505b505050565b600082821c905092915050565b6000610e4c60001984600802610e2e565b1980831691505092915050565b6000610e658383610e3b565b9150826002028217905092915050565b610e7e82610c68565b67ffffffffffffffff811115610e9757610e9661090b565b5b610ea18254610ca2565b610eac828285610de8565b600060209050601f831160018114610edf5760008415610ecd578287015190505b610ed78582610e59565b865550610f3f565b601f198416610eed86610cd3565b60005b82811015610f1557848901518255600182019150602085019450602081019050610ef0565b86831015610f325784890151610f2e601f891682610e3b565b8355505b6001600288020188555050505b505050505050565b7f4f6e6c792062757965722063616e207573652074686973206d6574686f640000600082015250565b6000610f7d601e83610b55565b9150610f8882610f47565b602082019050919050565b60006020820190508181036000830152610fac81610f70565b9050919050565b600081905092915050565b50565b6000610fce600083610fb3565b9150610fd982610fbe565b600082019050919050565b6000610fef82610fc1565b9150819050919050565b600060608201905061100e60008301866107ed565b61101b60208301856107ed565b61102860408301846107b1565b94935050505056fea2646970667358221220186fa84b1f00859360bfbf42c3cdbe37fb4ae96383a53ab86720818ee343bb3a64736f6c63430008120033",
  "linkReferences": {},
  "deployedLinkReferences": {}
}