{
  "_format": "hh-sol-artifact-1",
  "contractName": "Contract",
  "sourceName": "contracts/Contract.sol",
  "abi": [
    {
      "inputs": [
        {
          "internalType": "address",
          "name": "_nftaddress",
          "type": "address"
        },
        {
          "internalType": "address payable",
          "name": "_seller",
          "type": "address"
        }
      ],
      "stateMutability": "nonpayable",
      "type": "constructor"
    },
    {
      "inputs": [
        {
          "internalType": "uint256",
          "name": "_nftID",
          "type": "uint256"
        },
        {
          "internalType": "uint256",
          "name": "_tokenID",
          "type": "uint256"
        }
      ],
      "name": "bought",
      "outputs": [],
      "stateMutability": "payable",
      "type": "function"
    },
    {
      "inputs": [
        {
          "internalType": "uint256",
          "name": "",
          "type": "uint256"
        }
      ],
      "name": "buyer",
      "outputs": [
        {
          "internalType": "address",
          "name": "",
          "type": "address"
        }
      ],
      "stateMutability": "view",
      "type": "function"
    },
    {
      "inputs": [
        {
          "internalType": "uint256",
          "name": "_nftID",
          "type": "uint256"
        }
      ],
      "name": "cancelSale",
      "outputs": [],
      "stateMutability": "nonpayable",
      "type": "function"
    },
    {
      "inputs": [
        {
          "internalType": "uint256",
          "name": "_nftID",
          "type": "uint256"
        },
        {
          "internalType": "address",
          "name": "_buyer",
          "type": "address"
        }
      ],
      "name": "declareBuyer",
      "outputs": [],
      "stateMutability": "nonpayable",
      "type": "function"
    },
    {
      "inputs": [],
      "name": "getBalance",
      "outputs": [
        {
          "internalType": "uint256",
          "name": "",
          "type": "uint256"
        }
      ],
      "stateMutability": "view",
      "type": "function"
    },
    {
      "inputs": [],
      "name": "index",
      "outputs": [
        {
          "internalType": "uint256",
          "name": "",
          "type": "uint256"
        }
      ],
      "stateMutability": "view",
      "type": "function"
    },
    {
      "inputs": [
        {
          "internalType": "uint256",
          "name": "",
          "type": "uint256"
        }
      ],
      "name": "isListed",
      "outputs": [
        {
          "internalType": "bool",
          "name": "",
          "type": "bool"
        }
      ],
      "stateMutability": "view",
      "type": "function"
    },
    {
      "inputs": [
        {
          "internalType": "uint256",
          "name": "_nftID",
          "type": "uint256"
        },
        {
          "internalType": "string",
          "name": "_amenities",
          "type": "string"
        },
        {
          "internalType": "uint256",
          "name": "_sqfoot",
          "type": "uint256"
        },
        {
          "internalType": "uint256",
          "name": "_bedno",
          "type": "uint256"
        },
        {
          "internalType": "string",
          "name": "_img",
          "type": "string"
        },
        {
          "internalType": "string",
          "name": "_descp",
          "type": "string"
        },
        {
          "internalType": "uint256",
          "name": "_purchasePrice",
          "type": "uint256"
        },
        {
          "internalType": "uint256",
          "name": "_tokenID",
          "type": "uint256"
        }
      ],
      "name": "list1",
      "outputs": [],
      "stateMutability": "nonpayable",
      "type": "function"
    },
    {
      "inputs": [
        {
          "internalType": "uint256",
          "name": "_nftID",
          "type": "uint256"
        },
        {
          "internalType": "string",
          "name": "_city",
          "type": "string"
        },
        {
          "internalType": "string",
          "name": "_country",
          "type": "string"
        },
        {
          "internalType": "string",
          "name": "_addline",
          "type": "string"
        }
      ],
      "name": "list2",
      "outputs": [],
      "stateMutability": "nonpayable",
      "type": "function"
    },
    {
      "inputs": [
        {
          "internalType": "uint256",
          "name": "_nftID",
          "type": "uint256"
        },
        {
          "internalType": "string",
          "name": "_name",
          "type": "string"
        },
        {
          "internalType": "string",
          "name": "_email",
          "type": "string"
        },
        {
          "internalType": "string",
          "name": "_proptype",
          "type": "string"
        }
      ],
      "name": "list3",
      "outputs": [],
      "stateMutability": "nonpayable",
      "type": "function"
    },
    {
      "inputs": [
        {
          "internalType": "uint256",
          "name": "_nftID",
          "type": "uint256"
        }
      ],
      "name": "listed",
      "outputs": [
        {
          "internalType": "bool",
          "name": "",
          "type": "bool"
        }
      ],
      "stateMutability": "view",
      "type": "function"
    },
    {
      "inputs": [
        {
          "internalType": "uint256",
          "name": "_nftID",
          "type": "uint256"
        }
      ],
      "name": "meta1",
      "outputs": [
        {
          "internalType": "string",
          "name": "",
          "type": "string"
        },
        {
          "internalType": "uint256",
          "name": "",
          "type": "uint256"
        },
        {
          "internalType": "uint256",
          "name": "",
          "type": "uint256"
        },
        {
          "internalType": "string",
          "name": "",
          "type": "string"
        },
        {
          "internalType": "string",
          "name": "",
          "type": "string"
        }
      ],
      "stateMutability": "view",
      "type": "function"
    },
    {
      "inputs": [
        {
          "internalType": "uint256",
          "name": "_nftID",
          "type": "uint256"
        }
      ],
      "name": "meta2",
      "outputs": [
        {
          "internalType": "string",
          "name": "",
          "type": "string"
        },
        {
          "internalType": "string",
          "name": "",
          "type": "string"
        },
        {
          "internalType": "string",
          "name": "",
          "type": "string"
        }
      ],
      "stateMutability": "view",
      "type": "function"
    },
    {
      "inputs": [
        {
          "internalType": "uint256",
          "name": "_nftID",
          "type": "uint256"
        }
      ],
      "name": "meta3",
      "outputs": [
        {
          "internalType": "string",
          "name": "",
          "type": "string"
        },
        {
          "internalType": "string",
          "name": "",
          "type": "string"
        },
        {
          "internalType": "string",
          "name": "",
          "type": "string"
        }
      ],
      "stateMutability": "view",
      "type": "function"
    },
    {
      "inputs": [
        {
          "internalType": "uint256",
          "name": "",
          "type": "uint256"
        }
      ],
      "name": "metadata",
      "outputs": [
        {
          "internalType": "string",
          "name": "name",
          "type": "string"
        },
        {
          "internalType": "string",
          "name": "email",
          "type": "string"
        },
        {
          "internalType": "string",
          "name": "phoneno",
          "type": "string"
        },
        {
          "components": [
            {
              "internalType": "string",
              "name": "city",
              "type": "string"
            },
            {
              "internalType": "string",
              "name": "country",
              "type": "string"
            },
            {
              "internalType": "string",
              "name": "addline",
              "type": "string"
            }
          ],
          "internalType": "struct Contract.adds",
          "name": "adds",
          "type": "tuple"
        },
        {
          "internalType": "string",
          "name": "proptype",
          "type": "string"
        },
        {
          "internalType": "string",
          "name": "amenities",
          "type": "string"
        },
        {
          "internalType": "uint256",
          "name": "sqfoot",
          "type": "uint256"
        },
        {
          "internalType": "uint256",
          "name": "bedno",
          "type": "uint256"
        },
        {
          "internalType": "string",
          "name": "img",
          "type": "string"
        },
        {
          "internalType": "string",
          "name": "descp",
          "type": "string"
        }
      ],
      "stateMutability": "view",
      "type": "function"
    },
    {
      "inputs": [],
      "name": "nftaddress",
      "outputs": [
        {
          "internalType": "address",
          "name": "",
          "type": "address"
        }
      ],
      "stateMutability": "view",
      "type": "function"
    },
    {
      "inputs": [
        {
          "internalType": "uint256",
          "name": "_nftID",
          "type": "uint256"
        }
      ],
      "name": "pr",
      "outputs": [
        {
          "internalType": "uint256",
          "name": "",
          "type": "uint256"
        }
      ],
      "stateMutability": "view",
      "type": "function"
    },
    {
      "inputs": [
        {
          "internalType": "uint256",
          "name": "",
          "type": "uint256"
        }
      ],
      "name": "purchasePrice",
      "outputs": [
        {
          "internalType": "uint256",
          "name": "",
          "type": "uint256"
        }
      ],
      "stateMutability": "view",
      "type": "function"
    },
    {
      "inputs": [
        {
          "internalType": "uint256",
          "name": "_nftID",
          "type": "uint256"
        }
      ],
      "name": "retprice",
      "outputs": [
        {
          "internalType": "uint256",
          "name": "",
          "type": "uint256"
        }
      ],
      "stateMutability": "view",
      "type": "function"
    },
    {
      "inputs": [],
      "name": "seller",
      "outputs": [
        {
          "internalType": "address payable",
          "name": "",
          "type": "address"
        }
      ],
      "stateMutability": "view",
      "type": "function"
    },
    {
      "inputs": [],
      "name": "store",
      "outputs": [
        {
          "internalType": "uint256",
          "name": "",
          "type": "uint256"
        }
      ],
      "stateMutability": "view",
      "type": "function"
    },
    {
      "stateMutability": "payable",
      "type": "receive"
    }
  ],
  "bytecode": "0x608060405260006005553480156200001657600080fd5b506040516200270f3803806200270f83398181016040528101906200003c919062000174565b816000806101000a81548173ffffffffffffffffffffffffffffffffffffffff021916908373ffffffffffffffffffffffffffffffffffffffff16021790555080600160006101000a81548173ffffffffffffffffffffffffffffffffffffffff021916908373ffffffffffffffffffffffffffffffffffffffff1602179055505050620001bb565b600080fd5b600073ffffffffffffffffffffffffffffffffffffffff82169050919050565b6000620000f782620000ca565b9050919050565b6200010981620000ea565b81146200011557600080fd5b50565b6000815190506200012981620000fe565b92915050565b60006200013c82620000ca565b9050919050565b6200014e816200012f565b81146200015a57600080fd5b50565b6000815190506200016e8162000143565b92915050565b600080604083850312156200018e576200018d620000c5565b5b60006200019e8582860162000118565b9250506020620001b1858286016200015d565b9150509250929050565b61254480620001cb6000396000f3fe60806040526004361061012e5760003560e01c806355f26f9f116100ab578063c5be388a1161006f578063c5be388a1461042b578063e3684e3914610454578063e82dcf211461049a578063e85d826d146104d7578063fa69f7d214610514578063fcce48831461053057610135565b806355f26f9f1461033257806377fbc4ae1461035b578063975057e714610398578063bd94b005146103c3578063c17dca22146103ec57610135565b80632827e5bb116100f25780632827e5bb1461021f578063297016b11461024a5780632986c0e51461028b57806344c59256146102b65780634dd4acaf146102f557610135565b8063039146e81461013a57806304c312511461016357806308551a53146101a057806312065fe0146101cb5780631d947b8a146101f657610135565b3661013557005b600080fd5b34801561014657600080fd5b50610161600480360381019061015c9190611a13565b61056d565b005b34801561016f57600080fd5b5061018a60048036038101906101859190611ace565b6105e8565b6040516101979190611b16565b60405180910390f35b3480156101ac57600080fd5b506101b5610612565b6040516101c29190611b72565b60405180910390f35b3480156101d757600080fd5b506101e0610638565b6040516101ed9190611b9c565b60405180910390f35b34801561020257600080fd5b5061021d60048036038101906102189190611bb7565b610640565b005b34801561022b57600080fd5b506102346107fb565b6040516102419190611ce2565b60405180910390f35b34801561025657600080fd5b50610271600480360381019061026c9190611ace565b61081f565b604051610282959493929190611d7c565b60405180910390f35b34801561029757600080fd5b506102a0610a4e565b6040516102ad9190611b9c565b60405180910390f35b3480156102c257600080fd5b506102dd60048036038101906102d89190611ace565b610a54565b6040516102ec93929190611de4565b60405180910390f35b34801561030157600080fd5b5061031c60048036038101906103179190611ace565b610c55565b6040516103299190611ce2565b60405180910390f35b34801561033e57600080fd5b5061035960048036038101906103549190611a13565b610c88565b005b34801561036757600080fd5b50610382600480360381019061037d9190611ace565b610cfa565b60405161038f9190611b9c565b60405180910390f35b3480156103a457600080fd5b506103ad610d12565b6040516103ba9190611b9c565b60405180910390f35b3480156103cf57600080fd5b506103ea60048036038101906103e59190611ace565b610d1c565b005b3480156103f857600080fd5b50610413600480360381019061040e9190611ace565b610dcc565b60405161042293929190611de4565b60405180910390f35b34801561043757600080fd5b50610452600480360381019061044d9190611e5c565b610fc4565b005b34801561046057600080fd5b5061047b60048036038101906104769190611ace565b61101a565b6040516104919a99989796959493929190611f44565b60405180910390f35b3480156104a657600080fd5b506104c160048036038101906104bc9190611ace565b6115e6565b6040516104ce9190611b9c565b60405180910390f35b3480156104e357600080fd5b506104fe60048036038101906104f99190611ace565b611603565b60405161050b9190611b9c565b60405180910390f35b61052e60048036038101906105299190612018565b611620565b005b34801561053c57600080fd5b5061055760048036038101906105529190611ace565b611863565b6040516105649190611b16565b60405180910390f35b826006600086815260200190815260200160002060030160000190816105939190612264565b50816006600086815260200190815260200160002060030160010190816105ba9190612264565b50806006600086815260200190815260200160002060030160020190816105e19190612264565b5050505050565b60006004600083815260200190815260200160002060009054906101000a900460ff169050919050565b600160009054906101000a900473ffffffffffffffffffffffffffffffffffffffff1681565b600047905090565b60008054906101000a900473ffffffffffffffffffffffffffffffffffffffff1673ffffffffffffffffffffffffffffffffffffffff166323b872dd600160009054906101000a900473ffffffffffffffffffffffffffffffffffffffff1630846040518463ffffffff1660e01b81526004016106bf9392919061238b565b600060405180830381600087803b1580156106d957600080fd5b505af11580156106ed573d6000803e3d6000fd5b5050505081600360008a8152602001908152602001600020819055506001600460008a815260200190815260200160002060006101000a81548160ff02191690831515021790555086600660008a815260200190815260200160002060070190816107589190612264565b5085600660008a81526020019081526020016000206008018190555084600660008a81526020019081526020016000206009018190555083600660008a8152602001908152602001600020600a0190816107b29190612264565b5082600660008a8152602001908152602001600020600b0190816107d69190612264565b506001600560008282546107ea91906123f1565b925050819055505050505050505050565b60008054906101000a900473ffffffffffffffffffffffffffffffffffffffff1681565b60606000806060806006600087815260200190815260200160002060070160066000888152602001908152602001600020600801546006600089815260200190815260200160002060090154600660008a8152602001908152602001600020600a01600660008b8152602001908152602001600020600b018480546108a390612087565b80601f01602080910402602001604051908101604052809291908181526020018280546108cf90612087565b801561091c5780601f106108f15761010080835404028352916020019161091c565b820191906000526020600020905b8154815290600101906020018083116108ff57829003601f168201915b5050505050945081805461092f90612087565b80601f016020809104026020016040519081016040528092919081815260200182805461095b90612087565b80156109a85780601f1061097d576101008083540402835291602001916109a8565b820191906000526020600020905b81548152906001019060200180831161098b57829003601f168201915b505050505091508080546109bb90612087565b80601f01602080910402602001604051908101604052809291908181526020018280546109e790612087565b8015610a345780601f10610a0957610100808354040283529160200191610a34565b820191906000526020600020905b815481529060010190602001808311610a1757829003601f168201915b505050505090509450945094509450945091939590929450565b60055481565b6060806060600660008581526020019081526020016000206003016000016006600086815260200190815260200160002060030160010160066000878152602001908152602001600020600301600201828054610ab090612087565b80601f0160208091040260200160405190810160405280929190818152602001828054610adc90612087565b8015610b295780601f10610afe57610100808354040283529160200191610b29565b820191906000526020600020905b815481529060010190602001808311610b0c57829003601f168201915b50505050509250818054610b3c90612087565b80601f0160208091040260200160405190810160405280929190818152602001828054610b6890612087565b8015610bb55780601f10610b8a57610100808354040283529160200191610bb5565b820191906000526020600020905b815481529060010190602001808311610b9857829003601f168201915b50505050509150808054610bc890612087565b80601f0160208091040260200160405190810160405280929190818152602001828054610bf490612087565b8015610c415780601f10610c1657610100808354040283529160200191610c41565b820191906000526020600020905b815481529060010190602001808311610c2457829003601f168201915b505050505090509250925092509193909250565b60026020528060005260406000206000915054906101000a900473ffffffffffffffffffffffffffffffffffffffff1681565b82600660008681526020019081526020016000206000019081610cab9190612264565b5081600660008681526020019081526020016000206001019081610ccf9190612264565b5080600660008681526020019081526020016000206006019081610cf39190612264565b5050505050565b60036020528060005260406000206000915090505481565b6000600554905090565b60018014610d2957600080fd5b60006002600083815260200190815260200160002060009054906101000a900473ffffffffffffffffffffffffffffffffffffffff1673ffffffffffffffffffffffffffffffffffffffff1647604051610d8290612456565b60006040518083038185875af1925050503d8060008114610dbf576040519150601f19603f3d011682016040523d82523d6000602084013e610dc4565b606091505b505090505050565b6060806060600660008581526020019081526020016000206000016006600086815260200190815260200160002060010160066000878152602001908152602001600020600601828054610e1f90612087565b80601f0160208091040260200160405190810160405280929190818152602001828054610e4b90612087565b8015610e985780601f10610e6d57610100808354040283529160200191610e98565b820191906000526020600020905b815481529060010190602001808311610e7b57829003601f168201915b50505050509250818054610eab90612087565b80601f0160208091040260200160405190810160405280929190818152602001828054610ed790612087565b8015610f245780601f10610ef957610100808354040283529160200191610f24565b820191906000526020600020905b815481529060010190602001808311610f0757829003601f168201915b50505050509150808054610f3790612087565b80601f0160208091040260200160405190810160405280929190818152602001828054610f6390612087565b8015610fb05780601f10610f8557610100808354040283529160200191610fb0565b820191906000526020600020905b815481529060010190602001808311610f9357829003601f168201915b505050505090509250925092509193909250565b806002600084815260200190815260200160002060006101000a81548173ffffffffffffffffffffffffffffffffffffffff021916908373ffffffffffffffffffffffffffffffffffffffff1602179055505050565b600660205280600052604060002060009150905080600001805461103d90612087565b80601f016020809104026020016040519081016040528092919081815260200182805461106990612087565b80156110b65780601f1061108b576101008083540402835291602001916110b6565b820191906000526020600020905b81548152906001019060200180831161109957829003601f168201915b5050505050908060010180546110cb90612087565b80601f01602080910402602001604051908101604052809291908181526020018280546110f790612087565b80156111445780601f1061111957610100808354040283529160200191611144565b820191906000526020600020905b81548152906001019060200180831161112757829003601f168201915b50505050509080600201805461115990612087565b80601f016020809104026020016040519081016040528092919081815260200182805461118590612087565b80156111d25780601f106111a7576101008083540402835291602001916111d2565b820191906000526020600020905b8154815290600101906020018083116111b557829003601f168201915b505050505090806003016040518060600160405290816000820180546111f790612087565b80601f016020809104026020016040519081016040528092919081815260200182805461122390612087565b80156112705780601f1061124557610100808354040283529160200191611270565b820191906000526020600020905b81548152906001019060200180831161125357829003601f168201915b5050505050815260200160018201805461128990612087565b80601f01602080910402602001604051908101604052809291908181526020018280546112b590612087565b80156113025780601f106112d757610100808354040283529160200191611302565b820191906000526020600020905b8154815290600101906020018083116112e557829003601f168201915b5050505050815260200160028201805461131b90612087565b80601f016020809104026020016040519081016040528092919081815260200182805461134790612087565b80156113945780601f1061136957610100808354040283529160200191611394565b820191906000526020600020905b81548152906001019060200180831161137757829003601f168201915b505050505081525050908060060180546113ad90612087565b80601f01602080910402602001604051908101604052809291908181526020018280546113d990612087565b80156114265780601f106113fb57610100808354040283529160200191611426565b820191906000526020600020905b81548152906001019060200180831161140957829003601f168201915b50505050509080600701805461143b90612087565b80601f016020809104026020016040519081016040528092919081815260200182805461146790612087565b80156114b45780601f10611489576101008083540402835291602001916114b4565b820191906000526020600020905b81548152906001019060200180831161149757829003601f168201915b50505050509080600801549080600901549080600a0180546114d590612087565b80601f016020809104026020016040519081016040528092919081815260200182805461150190612087565b801561154e5780601f106115235761010080835404028352916020019161154e565b820191906000526020600020905b81548152906001019060200180831161153157829003601f168201915b50505050509080600b01805461156390612087565b80601f016020809104026020016040519081016040528092919081815260200182805461158f90612087565b80156115dc5780601f106115b1576101008083540402835291602001916115dc565b820191906000526020600020905b8154815290600101906020018083116115bf57829003601f168201915b505050505090508a565b600060036000838152602001908152602001600020549050919050565b600060036000838152602001908152602001600020549050919050565b816002600082815260200190815260200160002060009054906101000a900473ffffffffffffffffffffffffffffffffffffffff1673ffffffffffffffffffffffffffffffffffffffff163373ffffffffffffffffffffffffffffffffffffffff16146116c2576040517f08c379a00000000000000000000000000000000000000000000000000000000081526004016116b9906124b7565b60405180910390fd5b600360008481526020019081526020016000205434146116e157600080fd5b6000600160009054906101000a900473ffffffffffffffffffffffffffffffffffffffff1673ffffffffffffffffffffffffffffffffffffffff164760405161172990612456565b60006040518083038185875af1925050503d8060008114611766576040519150601f19603f3d011682016040523d82523d6000602084013e61176b565b606091505b5050905060006004600086815260200190815260200160002060006101000a81548160ff02191690831515021790555060008054906101000a900473ffffffffffffffffffffffffffffffffffffffff1673ffffffffffffffffffffffffffffffffffffffff166323b872dd306002600088815260200190815260200160002060009054906101000a900473ffffffffffffffffffffffffffffffffffffffff16866040518463ffffffff1660e01b815260040161182b939291906124d7565b600060405180830381600087803b15801561184557600080fd5b505af1158015611859573d6000803e3d6000fd5b5050505050505050565b60046020528060005260406000206000915054906101000a900460ff1681565b6000604051905090565b600080fd5b600080fd5b6000819050919050565b6118aa81611897565b81146118b557600080fd5b50565b6000813590506118c7816118a1565b92915050565b600080fd5b600080fd5b6000601f19601f8301169050919050565b7f4e487b7100000000000000000000000000000000000000000000000000000000600052604160045260246000fd5b611920826118d7565b810181811067ffffffffffffffff8211171561193f5761193e6118e8565b5b80604052505050565b6000611952611883565b905061195e8282611917565b919050565b600067ffffffffffffffff82111561197e5761197d6118e8565b5b611987826118d7565b9050602081019050919050565b82818337600083830152505050565b60006119b66119b184611963565b611948565b9050828152602081018484840111156119d2576119d16118d2565b5b6119dd848285611994565b509392505050565b600082601f8301126119fa576119f96118cd565b5b8135611a0a8482602086016119a3565b91505092915050565b60008060008060808587031215611a2d57611a2c61188d565b5b6000611a3b878288016118b8565b945050602085013567ffffffffffffffff811115611a5c57611a5b611892565b5b611a68878288016119e5565b935050604085013567ffffffffffffffff811115611a8957611a88611892565b5b611a95878288016119e5565b925050606085013567ffffffffffffffff811115611ab657611ab5611892565b5b611ac2878288016119e5565b91505092959194509250565b600060208284031215611ae457611ae361188d565b5b6000611af2848285016118b8565b91505092915050565b60008115159050919050565b611b1081611afb565b82525050565b6000602082019050611b2b6000830184611b07565b92915050565b600073ffffffffffffffffffffffffffffffffffffffff82169050919050565b6000611b5c82611b31565b9050919050565b611b6c81611b51565b82525050565b6000602082019050611b876000830184611b63565b92915050565b611b9681611897565b82525050565b6000602082019050611bb16000830184611b8d565b92915050565b600080600080600080600080610100898b031215611bd857611bd761188d565b5b6000611be68b828c016118b8565b985050602089013567ffffffffffffffff811115611c0757611c06611892565b5b611c138b828c016119e5565b9750506040611c248b828c016118b8565b9650506060611c358b828c016118b8565b955050608089013567ffffffffffffffff811115611c5657611c55611892565b5b611c628b828c016119e5565b94505060a089013567ffffffffffffffff811115611c8357611c82611892565b5b611c8f8b828c016119e5565b93505060c0611ca08b828c016118b8565b92505060e0611cb18b828c016118b8565b9150509295985092959890939650565b6000611ccc82611b31565b9050919050565b611cdc81611cc1565b82525050565b6000602082019050611cf76000830184611cd3565b92915050565b600081519050919050565b600082825260208201905092915050565b60005b83811015611d37578082015181840152602081019050611d1c565b60008484015250505050565b6000611d4e82611cfd565b611d588185611d08565b9350611d68818560208601611d19565b611d71816118d7565b840191505092915050565b600060a0820190508181036000830152611d968188611d43565b9050611da56020830187611b8d565b611db26040830186611b8d565b8181036060830152611dc48185611d43565b90508181036080830152611dd88184611d43565b90509695505050505050565b60006060820190508181036000830152611dfe8186611d43565b90508181036020830152611e128185611d43565b90508181036040830152611e268184611d43565b9050949350505050565b611e3981611cc1565b8114611e4457600080fd5b50565b600081359050611e5681611e30565b92915050565b60008060408385031215611e7357611e7261188d565b5b6000611e81858286016118b8565b9250506020611e9285828601611e47565b9150509250929050565b600082825260208201905092915050565b6000611eb882611cfd565b611ec28185611e9c565b9350611ed2818560208601611d19565b611edb816118d7565b840191505092915050565b60006060830160008301518482036000860152611f038282611ead565b91505060208301518482036020860152611f1d8282611ead565b91505060408301518482036040860152611f378282611ead565b9150508091505092915050565b6000610140820190508181036000830152611f5f818d611d43565b90508181036020830152611f73818c611d43565b90508181036040830152611f87818b611d43565b90508181036060830152611f9b818a611ee6565b90508181036080830152611faf8189611d43565b905081810360a0830152611fc38188611d43565b9050611fd260c0830187611b8d565b611fdf60e0830186611b8d565b818103610100830152611ff28185611d43565b90508181036101208301526120078184611d43565b90509b9a5050505050505050505050565b6000806040838503121561202f5761202e61188d565b5b600061203d858286016118b8565b925050602061204e858286016118b8565b9150509250929050565b7f4e487b7100000000000000000000000000000000000000000000000000000000600052602260045260246000fd5b6000600282049050600182168061209f57607f821691505b6020821081036120b2576120b1612058565b5b50919050565b60008190508160005260206000209050919050565b60006020601f8301049050919050565b600082821b905092915050565b60006008830261211a7fffffffffffffffffffffffffffffffffffffffffffffffffffffffffffffffff826120dd565b61212486836120dd565b95508019841693508086168417925050509392505050565b6000819050919050565b600061216161215c61215784611897565b61213c565b611897565b9050919050565b6000819050919050565b61217b83612146565b61218f61218782612168565b8484546120ea565b825550505050565b600090565b6121a4612197565b6121af818484612172565b505050565b5b818110156121d3576121c860008261219c565b6001810190506121b5565b5050565b601f821115612218576121e9816120b8565b6121f2846120cd565b81016020851015612201578190505b61221561220d856120cd565b8301826121b4565b50505b505050565b600082821c905092915050565b600061223b6000198460080261221d565b1980831691505092915050565b6000612254838361222a565b9150826002028217905092915050565b61226d82611cfd565b67ffffffffffffffff811115612286576122856118e8565b5b6122908254612087565b61229b8282856121d7565b600060209050601f8311600181146122ce57600084156122bc578287015190505b6122c68582612248565b86555061232e565b601f1984166122dc866120b8565b60005b82811015612304578489015182556001820191506020850194506020810190506122df565b86831015612321578489015161231d601f89168261222a565b8355505b6001600288020188555050505b505050505050565b600061235161234c61234784611b31565b61213c565b611b31565b9050919050565b600061236382612336565b9050919050565b600061237582612358565b9050919050565b6123858161236a565b82525050565b60006060820190506123a0600083018661237c565b6123ad6020830185611cd3565b6123ba6040830184611b8d565b949350505050565b7f4e487b7100000000000000000000000000000000000000000000000000000000600052601160045260246000fd5b60006123fc82611897565b915061240783611897565b925082820190508082111561241f5761241e6123c2565b5b92915050565b600081905092915050565b50565b6000612440600083612425565b915061244b82612430565b600082019050919050565b600061246182612433565b9150819050919050565b7f4f6e6c792062757965722063616e207573652074686973206d6574686f640000600082015250565b60006124a1601e83611d08565b91506124ac8261246b565b602082019050919050565b600060208201905081810360008301526124d081612494565b9050919050565b60006060820190506124ec6000830186611cd3565b6124f96020830185611cd3565b6125066040830184611b8d565b94935050505056fea264697066735822122053ec83fc13f85ef6d06467af505851fbc6b16968ce80098f80775a5fa7d8869764736f6c63430008110033",
  "linkReferences": {},
  "deployedLinkReferences": {}
}