{
  "_format": "hh-sol-artifact-1",
  "contractName": "Contract",
  "sourceName": "contracts/Contract.sol",
  "abi": [
    {
      "inputs": [
        {
          "internalType": "address",
          "name": "_nftaddress",
          "type": "address"
        },
        {
          "internalType": "address payable",
          "name": "_seller",
          "type": "address"
        }
      ],
      "stateMutability": "nonpayable",
      "type": "constructor"
    },
    {
      "inputs": [
        {
          "internalType": "uint256",
          "name": "_nftID",
          "type": "uint256"
        },
        {
          "internalType": "uint256",
          "name": "_tokenID",
          "type": "uint256"
        }
      ],
      "name": "bought",
      "outputs": [],
      "stateMutability": "payable",
      "type": "function"
    },
    {
      "inputs": [
        {
          "internalType": "uint256",
          "name": "",
          "type": "uint256"
        }
      ],
      "name": "buyer",
      "outputs": [
        {
          "internalType": "address",
          "name": "",
          "type": "address"
        }
      ],
      "stateMutability": "view",
      "type": "function"
    },
    {
      "inputs": [
        {
          "internalType": "uint256",
          "name": "_nftID",
          "type": "uint256"
        }
      ],
      "name": "cancelSale",
      "outputs": [],
      "stateMutability": "nonpayable",
      "type": "function"
    },
    {
      "inputs": [
        {
          "internalType": "uint256",
          "name": "_nftID",
          "type": "uint256"
        },
        {
          "internalType": "address",
          "name": "_buyer",
          "type": "address"
        }
      ],
      "name": "declareBuyer",
      "outputs": [],
      "stateMutability": "nonpayable",
      "type": "function"
    },
    {
      "inputs": [],
      "name": "getBalance",
      "outputs": [
        {
          "internalType": "uint256",
          "name": "",
          "type": "uint256"
        }
      ],
      "stateMutability": "view",
      "type": "function"
    },
    {
      "inputs": [],
      "name": "index",
      "outputs": [
        {
          "internalType": "uint256",
          "name": "",
          "type": "uint256"
        }
      ],
      "stateMutability": "view",
      "type": "function"
    },
    {
      "inputs": [
        {
          "internalType": "uint256",
          "name": "",
          "type": "uint256"
        }
      ],
      "name": "isListed",
      "outputs": [
        {
          "internalType": "bool",
          "name": "",
          "type": "bool"
        }
      ],
      "stateMutability": "view",
      "type": "function"
    },
    {
      "inputs": [
        {
          "internalType": "uint256",
          "name": "_nftID",
          "type": "uint256"
        },
        {
          "internalType": "string",
          "name": "_amenities",
          "type": "string"
        },
        {
          "internalType": "uint256",
          "name": "_sqfoot",
          "type": "uint256"
        },
        {
          "internalType": "uint256",
          "name": "_bedno",
          "type": "uint256"
        },
        {
          "internalType": "string",
          "name": "_img",
          "type": "string"
        },
        {
          "internalType": "string",
          "name": "_descp",
          "type": "string"
        },
        {
          "internalType": "uint256",
          "name": "_purchasePrice",
          "type": "uint256"
        },
        {
          "internalType": "uint256",
          "name": "_tokenID",
          "type": "uint256"
        }
      ],
      "name": "list1",
      "outputs": [],
      "stateMutability": "nonpayable",
      "type": "function"
    },
    {
      "inputs": [
        {
          "internalType": "uint256",
          "name": "_nftID",
          "type": "uint256"
        },
        {
          "internalType": "string",
          "name": "_city",
          "type": "string"
        },
        {
          "internalType": "string",
          "name": "_country",
          "type": "string"
        },
        {
          "internalType": "string",
          "name": "_addline",
          "type": "string"
        }
      ],
      "name": "list2",
      "outputs": [],
      "stateMutability": "nonpayable",
      "type": "function"
    },
    {
      "inputs": [
        {
          "internalType": "uint256",
          "name": "_nftID",
          "type": "uint256"
        },
        {
          "internalType": "string",
          "name": "_name",
          "type": "string"
        },
        {
          "internalType": "string",
          "name": "_email",
          "type": "string"
        },
        {
          "internalType": "string",
          "name": "_proptype",
          "type": "string"
        }
      ],
      "name": "list3",
      "outputs": [],
      "stateMutability": "nonpayable",
      "type": "function"
    },
    {
      "inputs": [
        {
          "internalType": "uint256",
          "name": "_nftID",
          "type": "uint256"
        }
      ],
      "name": "listed",
      "outputs": [
        {
          "internalType": "bool",
          "name": "",
          "type": "bool"
        }
      ],
      "stateMutability": "view",
      "type": "function"
    },
    {
      "inputs": [
        {
          "internalType": "uint256",
          "name": "",
          "type": "uint256"
        }
      ],
      "name": "metadata",
      "outputs": [
        {
          "internalType": "string",
          "name": "name",
          "type": "string"
        },
        {
          "internalType": "string",
          "name": "email",
          "type": "string"
        },
        {
          "internalType": "string",
          "name": "phoneno",
          "type": "string"
        },
        {
          "components": [
            {
              "internalType": "string",
              "name": "city",
              "type": "string"
            },
            {
              "internalType": "string",
              "name": "country",
              "type": "string"
            },
            {
              "internalType": "string",
              "name": "addline",
              "type": "string"
            }
          ],
          "internalType": "struct Contract.adds",
          "name": "adds",
          "type": "tuple"
        },
        {
          "internalType": "string",
          "name": "proptype",
          "type": "string"
        },
        {
          "internalType": "string",
          "name": "amenities",
          "type": "string"
        },
        {
          "internalType": "uint256",
          "name": "sqfoot",
          "type": "uint256"
        },
        {
          "internalType": "uint256",
          "name": "bedno",
          "type": "uint256"
        },
        {
          "internalType": "string",
          "name": "img",
          "type": "string"
        },
        {
          "internalType": "string",
          "name": "descp",
          "type": "string"
        }
      ],
      "stateMutability": "view",
      "type": "function"
    },
    {
      "inputs": [],
      "name": "nftaddress",
      "outputs": [
        {
          "internalType": "address",
          "name": "",
          "type": "address"
        }
      ],
      "stateMutability": "view",
      "type": "function"
    },
    {
      "inputs": [
        {
          "internalType": "uint256",
          "name": "_nftID",
          "type": "uint256"
        }
      ],
      "name": "pr",
      "outputs": [
        {
          "internalType": "uint256",
          "name": "",
          "type": "uint256"
        }
      ],
      "stateMutability": "view",
      "type": "function"
    },
    {
      "inputs": [
        {
          "internalType": "uint256",
          "name": "",
          "type": "uint256"
        }
      ],
      "name": "purchasePrice",
      "outputs": [
        {
          "internalType": "uint256",
          "name": "",
          "type": "uint256"
        }
      ],
      "stateMutability": "view",
      "type": "function"
    },
    {
      "inputs": [
        {
          "internalType": "uint256",
          "name": "_nftID",
          "type": "uint256"
        }
      ],
      "name": "retprice",
      "outputs": [
        {
          "internalType": "uint256",
          "name": "",
          "type": "uint256"
        }
      ],
      "stateMutability": "view",
      "type": "function"
    },
    {
      "inputs": [],
      "name": "seller",
      "outputs": [
        {
          "internalType": "address payable",
          "name": "",
          "type": "address"
        }
      ],
      "stateMutability": "view",
      "type": "function"
    },
    {
      "inputs": [],
      "name": "store",
      "outputs": [
        {
          "internalType": "uint256",
          "name": "",
          "type": "uint256"
        }
      ],
      "stateMutability": "view",
      "type": "function"
    },
    {
      "stateMutability": "payable",
      "type": "receive"
    }
  ],
  "bytecode": "0x608060405260006005553480156200001657600080fd5b50604051620022bd380380620022bd83398181016040528101906200003c919062000174565b816000806101000a81548173ffffffffffffffffffffffffffffffffffffffff021916908373ffffffffffffffffffffffffffffffffffffffff16021790555080600160006101000a81548173ffffffffffffffffffffffffffffffffffffffff021916908373ffffffffffffffffffffffffffffffffffffffff1602179055505050620001bb565b600080fd5b600073ffffffffffffffffffffffffffffffffffffffff82169050919050565b6000620000f782620000ca565b9050919050565b6200010981620000ea565b81146200011557600080fd5b50565b6000815190506200012981620000fe565b92915050565b60006200013c82620000ca565b9050919050565b6200014e816200012f565b81146200015a57600080fd5b50565b6000815190506200016e8162000143565b92915050565b600080604083850312156200018e576200018d620000c5565b5b60006200019e8582860162000118565b9250506020620001b1858286016200015d565b9150509250929050565b6120f280620001cb6000396000f3fe60806040526004361061010d5760003560e01c806377fbc4ae11610095578063e3684e3911610064578063e3684e3914610374578063e82dcf21146103ba578063e85d826d146103f7578063fa69f7d214610434578063fcce48831461045057610114565b806377fbc4ae146102ba578063975057e7146102f7578063bd94b00514610322578063c5be388a1461034b57610114565b80631d947b8a116100dc5780631d947b8a146101d55780632827e5bb146101fe5780632986c0e5146102295780634dd4acaf1461025457806355f26f9f1461029157610114565b8063039146e81461011957806304c312511461014257806308551a531461017f57806312065fe0146101aa57610114565b3661011457005b600080fd5b34801561012557600080fd5b50610140600480360381019061013b91906114d4565b61048d565b005b34801561014e57600080fd5b506101696004803603810190610164919061158f565b610508565b60405161017691906115d7565b60405180910390f35b34801561018b57600080fd5b50610194610532565b6040516101a19190611633565b60405180910390f35b3480156101b657600080fd5b506101bf610558565b6040516101cc919061165d565b60405180910390f35b3480156101e157600080fd5b506101fc60048036038101906101f79190611678565b610560565b005b34801561020a57600080fd5b5061021361071b565b60405161022091906117a3565b60405180910390f35b34801561023557600080fd5b5061023e61073f565b60405161024b919061165d565b60405180910390f35b34801561026057600080fd5b5061027b6004803603810190610276919061158f565b610745565b60405161028891906117a3565b60405180910390f35b34801561029d57600080fd5b506102b860048036038101906102b391906114d4565b610778565b005b3480156102c657600080fd5b506102e160048036038101906102dc919061158f565b6107ea565b6040516102ee919061165d565b60405180910390f35b34801561030357600080fd5b5061030c610802565b604051610319919061165d565b60405180910390f35b34801561032e57600080fd5b506103496004803603810190610344919061158f565b61080c565b005b34801561035757600080fd5b50610372600480360381019061036d91906117ea565b610a45565b005b34801561038057600080fd5b5061039b6004803603810190610396919061158f565b610a9b565b6040516103b19a99989796959493929190611951565b60405180910390f35b3480156103c657600080fd5b506103e160048036038101906103dc919061158f565b611067565b6040516103ee919061165d565b60405180910390f35b34801561040357600080fd5b5061041e6004803603810190610419919061158f565b611084565b60405161042b919061165d565b60405180910390f35b61044e60048036038101906104499190611a25565b6110a1565b005b34801561045c57600080fd5b506104776004803603810190610472919061158f565b611324565b60405161048491906115d7565b60405180910390f35b826006600086815260200190815260200160002060030160000190816104b39190611c71565b50816006600086815260200190815260200160002060030160010190816104da9190611c71565b50806006600086815260200190815260200160002060030160020190816105019190611c71565b5050505050565b60006004600083815260200190815260200160002060009054906101000a900460ff169050919050565b600160009054906101000a900473ffffffffffffffffffffffffffffffffffffffff1681565b600047905090565b60008054906101000a900473ffffffffffffffffffffffffffffffffffffffff1673ffffffffffffffffffffffffffffffffffffffff166323b872dd600160009054906101000a900473ffffffffffffffffffffffffffffffffffffffff1630846040518463ffffffff1660e01b81526004016105df93929190611d98565b600060405180830381600087803b1580156105f957600080fd5b505af115801561060d573d6000803e3d6000fd5b5050505081600360008a8152602001908152602001600020819055506001600460008a815260200190815260200160002060006101000a81548160ff02191690831515021790555086600660008a815260200190815260200160002060070190816106789190611c71565b5085600660008a81526020019081526020016000206008018190555084600660008a81526020019081526020016000206009018190555083600660008a8152602001908152602001600020600a0190816106d29190611c71565b5082600660008a8152602001908152602001600020600b0190816106f69190611c71565b5060016005600082825461070a9190611dfe565b925050819055505050505050505050565b60008054906101000a900473ffffffffffffffffffffffffffffffffffffffff1681565b60055481565b60026020528060005260406000206000915054906101000a900473ffffffffffffffffffffffffffffffffffffffff1681565b8260066000868152602001908152602001600020600001908161079b9190611c71565b50816006600086815260200190815260200160002060010190816107bf9190611c71565b50806006600086815260200190815260200160002060060190816107e39190611c71565b5050505050565b60036020528060005260406000206000915090505481565b6000600554905090565b600160009054906101000a900473ffffffffffffffffffffffffffffffffffffffff1673ffffffffffffffffffffffffffffffffffffffff163373ffffffffffffffffffffffffffffffffffffffff1614806108c657506002600082815260200190815260200160002060009054906101000a900473ffffffffffffffffffffffffffffffffffffffff1673ffffffffffffffffffffffffffffffffffffffff163373ffffffffffffffffffffffffffffffffffffffff16145b610905576040517f08c379a00000000000000000000000000000000000000000000000000000000081526004016108fc90611ea4565b60405180910390fd5b6004600082815260200190815260200160002060009054906101000a900460ff16610965576040517f08c379a000000000000000000000000000000000000000000000000000000000815260040161095c90611f10565b60405180910390fd5b60008054906101000a900473ffffffffffffffffffffffffffffffffffffffff1673ffffffffffffffffffffffffffffffffffffffff166323b872dd30600160009054906101000a900473ffffffffffffffffffffffffffffffffffffffff16846040518463ffffffff1660e01b81526004016109e493929190611f30565b600060405180830381600087803b1580156109fe57600080fd5b505af1158015610a12573d6000803e3d6000fd5b5050505060006004600083815260200190815260200160002060006101000a81548160ff02191690831515021790555050565b806002600084815260200190815260200160002060006101000a81548173ffffffffffffffffffffffffffffffffffffffff021916908373ffffffffffffffffffffffffffffffffffffffff1602179055505050565b6006602052806000526040600020600091509050806000018054610abe90611a94565b80601f0160208091040260200160405190810160405280929190818152602001828054610aea90611a94565b8015610b375780601f10610b0c57610100808354040283529160200191610b37565b820191906000526020600020905b815481529060010190602001808311610b1a57829003601f168201915b505050505090806001018054610b4c90611a94565b80601f0160208091040260200160405190810160405280929190818152602001828054610b7890611a94565b8015610bc55780601f10610b9a57610100808354040283529160200191610bc5565b820191906000526020600020905b815481529060010190602001808311610ba857829003601f168201915b505050505090806002018054610bda90611a94565b80601f0160208091040260200160405190810160405280929190818152602001828054610c0690611a94565b8015610c535780601f10610c2857610100808354040283529160200191610c53565b820191906000526020600020905b815481529060010190602001808311610c3657829003601f168201915b50505050509080600301604051806060016040529081600082018054610c7890611a94565b80601f0160208091040260200160405190810160405280929190818152602001828054610ca490611a94565b8015610cf15780601f10610cc657610100808354040283529160200191610cf1565b820191906000526020600020905b815481529060010190602001808311610cd457829003601f168201915b50505050508152602001600182018054610d0a90611a94565b80601f0160208091040260200160405190810160405280929190818152602001828054610d3690611a94565b8015610d835780601f10610d5857610100808354040283529160200191610d83565b820191906000526020600020905b815481529060010190602001808311610d6657829003601f168201915b50505050508152602001600282018054610d9c90611a94565b80601f0160208091040260200160405190810160405280929190818152602001828054610dc890611a94565b8015610e155780601f10610dea57610100808354040283529160200191610e15565b820191906000526020600020905b815481529060010190602001808311610df857829003601f168201915b50505050508152505090806006018054610e2e90611a94565b80601f0160208091040260200160405190810160405280929190818152602001828054610e5a90611a94565b8015610ea75780601f10610e7c57610100808354040283529160200191610ea7565b820191906000526020600020905b815481529060010190602001808311610e8a57829003601f168201915b505050505090806007018054610ebc90611a94565b80601f0160208091040260200160405190810160405280929190818152602001828054610ee890611a94565b8015610f355780601f10610f0a57610100808354040283529160200191610f35565b820191906000526020600020905b815481529060010190602001808311610f1857829003601f168201915b50505050509080600801549080600901549080600a018054610f5690611a94565b80601f0160208091040260200160405190810160405280929190818152602001828054610f8290611a94565b8015610fcf5780601f10610fa457610100808354040283529160200191610fcf565b820191906000526020600020905b815481529060010190602001808311610fb257829003601f168201915b50505050509080600b018054610fe490611a94565b80601f016020809104026020016040519081016040528092919081815260200182805461101090611a94565b801561105d5780601f106110325761010080835404028352916020019161105d565b820191906000526020600020905b81548152906001019060200180831161104057829003601f168201915b505050505090508a565b600060036000838152602001908152602001600020549050919050565b600060036000838152602001908152602001600020549050919050565b816002600082815260200190815260200160002060009054906101000a900473ffffffffffffffffffffffffffffffffffffffff1673ffffffffffffffffffffffffffffffffffffffff163373ffffffffffffffffffffffffffffffffffffffff1614611143576040517f08c379a000000000000000000000000000000000000000000000000000000000815260040161113a90611fb3565b60405180910390fd5b6003600084815260200190815260200160002054341461116257600080fd5b6000600160009054906101000a900473ffffffffffffffffffffffffffffffffffffffff1673ffffffffffffffffffffffffffffffffffffffff16476040516111aa90612004565b60006040518083038185875af1925050503d80600081146111e7576040519150601f19603f3d011682016040523d82523d6000602084013e6111ec565b606091505b5050905080611230576040517f08c379a000000000000000000000000000000000000000000000000000000000815260040161122790612065565b60405180910390fd5b60008054906101000a900473ffffffffffffffffffffffffffffffffffffffff1673ffffffffffffffffffffffffffffffffffffffff166323b872dd306002600088815260200190815260200160002060009054906101000a900473ffffffffffffffffffffffffffffffffffffffff16866040518463ffffffff1660e01b81526004016112c093929190612085565b600060405180830381600087803b1580156112da57600080fd5b505af11580156112ee573d6000803e3d6000fd5b5050505060006004600086815260200190815260200160002060006101000a81548160ff02191690831515021790555050505050565b60046020528060005260406000206000915054906101000a900460ff1681565b6000604051905090565b600080fd5b600080fd5b6000819050919050565b61136b81611358565b811461137657600080fd5b50565b60008135905061138881611362565b92915050565b600080fd5b600080fd5b6000601f19601f8301169050919050565b7f4e487b7100000000000000000000000000000000000000000000000000000000600052604160045260246000fd5b6113e182611398565b810181811067ffffffffffffffff82111715611400576113ff6113a9565b5b80604052505050565b6000611413611344565b905061141f82826113d8565b919050565b600067ffffffffffffffff82111561143f5761143e6113a9565b5b61144882611398565b9050602081019050919050565b82818337600083830152505050565b600061147761147284611424565b611409565b90508281526020810184848401111561149357611492611393565b5b61149e848285611455565b509392505050565b600082601f8301126114bb576114ba61138e565b5b81356114cb848260208601611464565b91505092915050565b600080600080608085870312156114ee576114ed61134e565b5b60006114fc87828801611379565b945050602085013567ffffffffffffffff81111561151d5761151c611353565b5b611529878288016114a6565b935050604085013567ffffffffffffffff81111561154a57611549611353565b5b611556878288016114a6565b925050606085013567ffffffffffffffff81111561157757611576611353565b5b611583878288016114a6565b91505092959194509250565b6000602082840312156115a5576115a461134e565b5b60006115b384828501611379565b91505092915050565b60008115159050919050565b6115d1816115bc565b82525050565b60006020820190506115ec60008301846115c8565b92915050565b600073ffffffffffffffffffffffffffffffffffffffff82169050919050565b600061161d826115f2565b9050919050565b61162d81611612565b82525050565b60006020820190506116486000830184611624565b92915050565b61165781611358565b82525050565b6000602082019050611672600083018461164e565b92915050565b600080600080600080600080610100898b0312156116995761169861134e565b5b60006116a78b828c01611379565b985050602089013567ffffffffffffffff8111156116c8576116c7611353565b5b6116d48b828c016114a6565b97505060406116e58b828c01611379565b96505060606116f68b828c01611379565b955050608089013567ffffffffffffffff81111561171757611716611353565b5b6117238b828c016114a6565b94505060a089013567ffffffffffffffff81111561174457611743611353565b5b6117508b828c016114a6565b93505060c06117618b828c01611379565b92505060e06117728b828c01611379565b9150509295985092959890939650565b600061178d826115f2565b9050919050565b61179d81611782565b82525050565b60006020820190506117b86000830184611794565b92915050565b6117c781611782565b81146117d257600080fd5b50565b6000813590506117e4816117be565b92915050565b600080604083850312156118015761180061134e565b5b600061180f85828601611379565b9250506020611820858286016117d5565b9150509250929050565b600081519050919050565b600082825260208201905092915050565b60005b83811015611864578082015181840152602081019050611849565b60008484015250505050565b600061187b8261182a565b6118858185611835565b9350611895818560208601611846565b61189e81611398565b840191505092915050565b600082825260208201905092915050565b60006118c58261182a565b6118cf81856118a9565b93506118df818560208601611846565b6118e881611398565b840191505092915050565b6000606083016000830151848203600086015261191082826118ba565b9150506020830151848203602086015261192a82826118ba565b9150506040830151848203604086015261194482826118ba565b9150508091505092915050565b600061014082019050818103600083015261196c818d611870565b90508181036020830152611980818c611870565b90508181036040830152611994818b611870565b905081810360608301526119a8818a6118f3565b905081810360808301526119bc8189611870565b905081810360a08301526119d08188611870565b90506119df60c083018761164e565b6119ec60e083018661164e565b8181036101008301526119ff8185611870565b9050818103610120830152611a148184611870565b90509b9a5050505050505050505050565b60008060408385031215611a3c57611a3b61134e565b5b6000611a4a85828601611379565b9250506020611a5b85828601611379565b9150509250929050565b7f4e487b7100000000000000000000000000000000000000000000000000000000600052602260045260246000fd5b60006002820490506001821680611aac57607f821691505b602082108103611abf57611abe611a65565b5b50919050565b60008190508160005260206000209050919050565b60006020601f8301049050919050565b600082821b905092915050565b600060088302611b277fffffffffffffffffffffffffffffffffffffffffffffffffffffffffffffffff82611aea565b611b318683611aea565b95508019841693508086168417925050509392505050565b6000819050919050565b6000611b6e611b69611b6484611358565b611b49565b611358565b9050919050565b6000819050919050565b611b8883611b53565b611b9c611b9482611b75565b848454611af7565b825550505050565b600090565b611bb1611ba4565b611bbc818484611b7f565b505050565b5b81811015611be057611bd5600082611ba9565b600181019050611bc2565b5050565b601f821115611c2557611bf681611ac5565b611bff84611ada565b81016020851015611c0e578190505b611c22611c1a85611ada565b830182611bc1565b50505b505050565b600082821c905092915050565b6000611c4860001984600802611c2a565b1980831691505092915050565b6000611c618383611c37565b9150826002028217905092915050565b611c7a8261182a565b67ffffffffffffffff811115611c9357611c926113a9565b5b611c9d8254611a94565b611ca8828285611be4565b600060209050601f831160018114611cdb5760008415611cc9578287015190505b611cd38582611c55565b865550611d3b565b601f198416611ce986611ac5565b60005b82811015611d1157848901518255600182019150602085019450602081019050611cec565b86831015611d2e5784890151611d2a601f891682611c37565b8355505b6001600288020188555050505b505050505050565b6000611d5e611d59611d54846115f2565b611b49565b6115f2565b9050919050565b6000611d7082611d43565b9050919050565b6000611d8282611d65565b9050919050565b611d9281611d77565b82525050565b6000606082019050611dad6000830186611d89565b611dba6020830185611794565b611dc7604083018461164e565b949350505050565b7f4e487b7100000000000000000000000000000000000000000000000000000000600052601160045260246000fd5b6000611e0982611358565b9150611e1483611358565b9250828201905080821115611e2c57611e2b611dcf565b5b92915050565b7f4f6e6c792073656c6c6572206f722062757965722063616e207573652074686960008201527f73206d6574686f64000000000000000000000000000000000000000000000000602082015250565b6000611e8e602883611835565b9150611e9982611e32565b604082019050919050565b60006020820190508181036000830152611ebd81611e81565b9050919050565b7f50726f7065727479206973206e6f74206c697374656420666f722073616c6500600082015250565b6000611efa601f83611835565b9150611f0582611ec4565b602082019050919050565b60006020820190508181036000830152611f2981611eed565b9050919050565b6000606082019050611f456000830186611794565b611f526020830185611d89565b611f5f604083018461164e565b949350505050565b7f4f6e6c792062757965722063616e207573652074686973206d6574686f640000600082015250565b6000611f9d601e83611835565b9150611fa882611f67565b602082019050919050565b60006020820190508181036000830152611fcc81611f90565b9050919050565b600081905092915050565b50565b6000611fee600083611fd3565b9150611ff982611fde565b600082019050919050565b600061200f82611fe1565b9150819050919050565b7f5472616e73666572204661696c65640000000000000000000000000000000000600082015250565b600061204f600f83611835565b915061205a82612019565b602082019050919050565b6000602082019050818103600083015261207e81612042565b9050919050565b600060608201905061209a6000830186611794565b6120a76020830185611794565b6120b4604083018461164e565b94935050505056fea2646970667358221220b77319a2155785bdfe24cbfff020d2052028be7e4f898f1cf0b9efa532eb32ad64736f6c63430008110033",
  "linkReferences": {},
  "deployedLinkReferences": {}
}