{
  "_format": "hh-sol-artifact-1",
  "contractName": "Contract",
  "sourceName": "contracts/Contract.sol",
  "abi": [
    {
      "inputs": [
        {
          "internalType": "address",
          "name": "_nftaddress",
          "type": "address"
        },
        {
          "internalType": "address payable",
          "name": "_seller",
          "type": "address"
        }
      ],
      "stateMutability": "nonpayable",
      "type": "constructor"
    },
    {
      "inputs": [
        {
          "internalType": "uint256",
          "name": "_nftID",
          "type": "uint256"
        },
        {
          "internalType": "uint256",
          "name": "_tokenID",
          "type": "uint256"
        }
      ],
      "name": "bought",
      "outputs": [],
      "stateMutability": "payable",
      "type": "function"
    },
    {
      "inputs": [
        {
          "internalType": "uint256",
          "name": "",
          "type": "uint256"
        }
      ],
      "name": "buyer",
      "outputs": [
        {
          "internalType": "address",
          "name": "",
          "type": "address"
        }
      ],
      "stateMutability": "view",
      "type": "function"
    },
    {
      "inputs": [
        {
          "internalType": "uint256",
          "name": "_nftID",
          "type": "uint256"
        }
      ],
      "name": "cancelSale",
      "outputs": [],
      "stateMutability": "nonpayable",
      "type": "function"
    },
    {
      "inputs": [
        {
          "internalType": "uint256",
          "name": "_nftID",
          "type": "uint256"
        },
        {
          "internalType": "address",
          "name": "_buyer",
          "type": "address"
        }
      ],
      "name": "declareBuyer",
      "outputs": [],
      "stateMutability": "nonpayable",
      "type": "function"
    },
    {
      "inputs": [],
      "name": "getBalance",
      "outputs": [
        {
          "internalType": "uint256",
          "name": "",
          "type": "uint256"
        }
      ],
      "stateMutability": "view",
      "type": "function"
    },
    {
      "inputs": [],
      "name": "index",
      "outputs": [
        {
          "internalType": "uint256",
          "name": "",
          "type": "uint256"
        }
      ],
      "stateMutability": "view",
      "type": "function"
    },
    {
      "inputs": [
        {
          "internalType": "uint256",
          "name": "",
          "type": "uint256"
        }
      ],
      "name": "isListed",
      "outputs": [
        {
          "internalType": "bool",
          "name": "",
          "type": "bool"
        }
      ],
      "stateMutability": "view",
      "type": "function"
    },
    {
      "inputs": [
        {
          "internalType": "uint256",
          "name": "_nftID",
          "type": "uint256"
        },
        {
          "internalType": "string",
          "name": "_amenities",
          "type": "string"
        },
        {
          "internalType": "uint256",
          "name": "_sqfoot",
          "type": "uint256"
        },
        {
          "internalType": "uint256",
          "name": "_bedno",
          "type": "uint256"
        },
        {
          "internalType": "string",
          "name": "_img",
          "type": "string"
        },
        {
          "internalType": "string",
          "name": "_descp",
          "type": "string"
        },
        {
          "internalType": "uint256",
          "name": "_purchasePrice",
          "type": "uint256"
        },
        {
          "internalType": "uint256",
          "name": "_tokenID",
          "type": "uint256"
        }
      ],
      "name": "list1",
      "outputs": [],
      "stateMutability": "nonpayable",
      "type": "function"
    },
    {
      "inputs": [
        {
          "internalType": "uint256",
          "name": "_nftID",
          "type": "uint256"
        },
        {
          "internalType": "string",
          "name": "_city",
          "type": "string"
        },
        {
          "internalType": "string",
          "name": "_country",
          "type": "string"
        },
        {
          "internalType": "string",
          "name": "_addline",
          "type": "string"
        }
      ],
      "name": "list2",
      "outputs": [],
      "stateMutability": "nonpayable",
      "type": "function"
    },
    {
      "inputs": [
        {
          "internalType": "uint256",
          "name": "_nftID",
          "type": "uint256"
        },
        {
          "internalType": "string",
          "name": "_name",
          "type": "string"
        },
        {
          "internalType": "string",
          "name": "_email",
          "type": "string"
        },
        {
          "internalType": "string",
          "name": "_proptype",
          "type": "string"
        }
      ],
      "name": "list3",
      "outputs": [],
      "stateMutability": "nonpayable",
      "type": "function"
    },
    {
      "inputs": [
        {
          "internalType": "uint256",
          "name": "_nftID",
          "type": "uint256"
        }
      ],
      "name": "listed",
      "outputs": [
        {
          "internalType": "bool",
          "name": "",
          "type": "bool"
        }
      ],
      "stateMutability": "view",
      "type": "function"
    },
    {
      "inputs": [
        {
          "internalType": "uint256",
          "name": "",
          "type": "uint256"
        }
      ],
      "name": "metadata",
      "outputs": [
        {
          "internalType": "string",
          "name": "name",
          "type": "string"
        },
        {
          "internalType": "string",
          "name": "email",
          "type": "string"
        },
        {
          "internalType": "string",
          "name": "phoneno",
          "type": "string"
        },
        {
          "components": [
            {
              "internalType": "string",
              "name": "city",
              "type": "string"
            },
            {
              "internalType": "string",
              "name": "country",
              "type": "string"
            },
            {
              "internalType": "string",
              "name": "addline",
              "type": "string"
            }
          ],
          "internalType": "struct Contract.adds",
          "name": "adds",
          "type": "tuple"
        },
        {
          "internalType": "string",
          "name": "proptype",
          "type": "string"
        },
        {
          "internalType": "string",
          "name": "amenities",
          "type": "string"
        },
        {
          "internalType": "uint256",
          "name": "sqfoot",
          "type": "uint256"
        },
        {
          "internalType": "uint256",
          "name": "bedno",
          "type": "uint256"
        },
        {
          "internalType": "string",
          "name": "img",
          "type": "string"
        },
        {
          "internalType": "string",
          "name": "descp",
          "type": "string"
        }
      ],
      "stateMutability": "view",
      "type": "function"
    },
    {
      "inputs": [],
      "name": "nftaddress",
      "outputs": [
        {
          "internalType": "address",
          "name": "",
          "type": "address"
        }
      ],
      "stateMutability": "view",
      "type": "function"
    },
    {
      "inputs": [
        {
          "internalType": "uint256",
          "name": "_nftID",
          "type": "uint256"
        }
      ],
      "name": "pr",
      "outputs": [
        {
          "internalType": "uint256",
          "name": "",
          "type": "uint256"
        }
      ],
      "stateMutability": "view",
      "type": "function"
    },
    {
      "inputs": [
        {
          "internalType": "uint256",
          "name": "",
          "type": "uint256"
        }
      ],
      "name": "purchasePrice",
      "outputs": [
        {
          "internalType": "uint256",
          "name": "",
          "type": "uint256"
        }
      ],
      "stateMutability": "view",
      "type": "function"
    },
    {
      "inputs": [
        {
          "internalType": "uint256",
          "name": "_nftID",
          "type": "uint256"
        }
      ],
      "name": "retprice",
      "outputs": [
        {
          "internalType": "uint256",
          "name": "",
          "type": "uint256"
        }
      ],
      "stateMutability": "view",
      "type": "function"
    },
    {
      "inputs": [],
      "name": "seller",
      "outputs": [
        {
          "internalType": "address payable",
          "name": "",
          "type": "address"
        }
      ],
      "stateMutability": "view",
      "type": "function"
    },
    {
      "inputs": [],
      "name": "store",
      "outputs": [
        {
          "internalType": "uint256",
          "name": "",
          "type": "uint256"
        }
      ],
      "stateMutability": "view",
      "type": "function"
    },
    {
      "stateMutability": "payable",
      "type": "receive"
    }
  ],
  "bytecode": "0x608060405260006005553480156200001657600080fd5b506040516200222e3803806200222e83398181016040528101906200003c919062000174565b816000806101000a81548173ffffffffffffffffffffffffffffffffffffffff021916908373ffffffffffffffffffffffffffffffffffffffff16021790555080600160006101000a81548173ffffffffffffffffffffffffffffffffffffffff021916908373ffffffffffffffffffffffffffffffffffffffff1602179055505050620001bb565b600080fd5b600073ffffffffffffffffffffffffffffffffffffffff82169050919050565b6000620000f782620000ca565b9050919050565b6200010981620000ea565b81146200011557600080fd5b50565b6000815190506200012981620000fe565b92915050565b60006200013c82620000ca565b9050919050565b6200014e816200012f565b81146200015a57600080fd5b50565b6000815190506200016e8162000143565b92915050565b600080604083850312156200018e576200018d620000c5565b5b60006200019e8582860162000118565b9250506020620001b1858286016200015d565b9150509250929050565b61206380620001cb6000396000f3fe60806040526004361061010d5760003560e01c806377fbc4ae11610095578063e3684e3911610064578063e3684e3914610374578063e82dcf21146103ba578063e85d826d146103f7578063fa69f7d214610434578063fcce48831461045057610114565b806377fbc4ae146102ba578063975057e7146102f7578063bd94b00514610322578063c5be388a1461034b57610114565b80631d947b8a116100dc5780631d947b8a146101d55780632827e5bb146101fe5780632986c0e5146102295780634dd4acaf1461025457806355f26f9f1461029157610114565b8063039146e81461011957806304c312511461014257806308551a531461017f57806312065fe0146101aa57610114565b3661011457005b600080fd5b34801561012557600080fd5b50610140600480360381019061013b919061146b565b61048d565b005b34801561014e57600080fd5b5061016960048036038101906101649190611526565b610508565b604051610176919061156e565b60405180910390f35b34801561018b57600080fd5b50610194610532565b6040516101a191906115ca565b60405180910390f35b3480156101b657600080fd5b506101bf610558565b6040516101cc91906115f4565b60405180910390f35b3480156101e157600080fd5b506101fc60048036038101906101f7919061160f565b610560565b005b34801561020a57600080fd5b5061021361071b565b604051610220919061173a565b60405180910390f35b34801561023557600080fd5b5061023e61073f565b60405161024b91906115f4565b60405180910390f35b34801561026057600080fd5b5061027b60048036038101906102769190611526565b610745565b604051610288919061173a565b60405180910390f35b34801561029d57600080fd5b506102b860048036038101906102b3919061146b565b610778565b005b3480156102c657600080fd5b506102e160048036038101906102dc9190611526565b6107ea565b6040516102ee91906115f4565b60405180910390f35b34801561030357600080fd5b5061030c610802565b60405161031991906115f4565b60405180910390f35b34801561032e57600080fd5b5061034960048036038101906103449190611526565b61080c565b005b34801561035757600080fd5b50610372600480360381019061036d9190611781565b6109dc565b005b34801561038057600080fd5b5061039b60048036038101906103969190611526565b610a32565b6040516103b19a999897969594939291906118e8565b60405180910390f35b3480156103c657600080fd5b506103e160048036038101906103dc9190611526565b610ffe565b6040516103ee91906115f4565b60405180910390f35b34801561040357600080fd5b5061041e60048036038101906104199190611526565b61101b565b60405161042b91906115f4565b60405180910390f35b61044e600480360381019061044991906119bc565b611038565b005b34801561045c57600080fd5b5061047760048036038101906104729190611526565b6112bb565b604051610484919061156e565b60405180910390f35b826006600086815260200190815260200160002060030160000190816104b39190611c08565b50816006600086815260200190815260200160002060030160010190816104da9190611c08565b50806006600086815260200190815260200160002060030160020190816105019190611c08565b5050505050565b60006004600083815260200190815260200160002060009054906101000a900460ff169050919050565b600160009054906101000a900473ffffffffffffffffffffffffffffffffffffffff1681565b600047905090565b60008054906101000a900473ffffffffffffffffffffffffffffffffffffffff1673ffffffffffffffffffffffffffffffffffffffff166323b872dd600160009054906101000a900473ffffffffffffffffffffffffffffffffffffffff1630846040518463ffffffff1660e01b81526004016105df93929190611d2f565b600060405180830381600087803b1580156105f957600080fd5b505af115801561060d573d6000803e3d6000fd5b5050505081600360008a8152602001908152602001600020819055506001600460008a815260200190815260200160002060006101000a81548160ff02191690831515021790555086600660008a815260200190815260200160002060070190816106789190611c08565b5085600660008a81526020019081526020016000206008018190555084600660008a81526020019081526020016000206009018190555083600660008a8152602001908152602001600020600a0190816106d29190611c08565b5082600660008a8152602001908152602001600020600b0190816106f69190611c08565b5060016005600082825461070a9190611d95565b925050819055505050505050505050565b60008054906101000a900473ffffffffffffffffffffffffffffffffffffffff1681565b60055481565b60026020528060005260406000206000915054906101000a900473ffffffffffffffffffffffffffffffffffffffff1681565b8260066000868152602001908152602001600020600001908161079b9190611c08565b50816006600086815260200190815260200160002060010190816107bf9190611c08565b50806006600086815260200190815260200160002060060190816107e39190611c08565b5050505050565b60036020528060005260406000206000915090505481565b6000600554905090565b600160009054906101000a900473ffffffffffffffffffffffffffffffffffffffff1673ffffffffffffffffffffffffffffffffffffffff163373ffffffffffffffffffffffffffffffffffffffff161461089c576040517f08c379a000000000000000000000000000000000000000000000000000000000815260040161089390611e15565b60405180910390fd5b6004600082815260200190815260200160002060009054906101000a900460ff166108fc576040517f08c379a00000000000000000000000000000000000000000000000000000000081526004016108f390611e81565b60405180910390fd5b60008054906101000a900473ffffffffffffffffffffffffffffffffffffffff1673ffffffffffffffffffffffffffffffffffffffff166323b872dd30600160009054906101000a900473ffffffffffffffffffffffffffffffffffffffff16846040518463ffffffff1660e01b815260040161097b93929190611ea1565b600060405180830381600087803b15801561099557600080fd5b505af11580156109a9573d6000803e3d6000fd5b5050505060006004600083815260200190815260200160002060006101000a81548160ff02191690831515021790555050565b806002600084815260200190815260200160002060006101000a81548173ffffffffffffffffffffffffffffffffffffffff021916908373ffffffffffffffffffffffffffffffffffffffff1602179055505050565b6006602052806000526040600020600091509050806000018054610a5590611a2b565b80601f0160208091040260200160405190810160405280929190818152602001828054610a8190611a2b565b8015610ace5780601f10610aa357610100808354040283529160200191610ace565b820191906000526020600020905b815481529060010190602001808311610ab157829003601f168201915b505050505090806001018054610ae390611a2b565b80601f0160208091040260200160405190810160405280929190818152602001828054610b0f90611a2b565b8015610b5c5780601f10610b3157610100808354040283529160200191610b5c565b820191906000526020600020905b815481529060010190602001808311610b3f57829003601f168201915b505050505090806002018054610b7190611a2b565b80601f0160208091040260200160405190810160405280929190818152602001828054610b9d90611a2b565b8015610bea5780601f10610bbf57610100808354040283529160200191610bea565b820191906000526020600020905b815481529060010190602001808311610bcd57829003601f168201915b50505050509080600301604051806060016040529081600082018054610c0f90611a2b565b80601f0160208091040260200160405190810160405280929190818152602001828054610c3b90611a2b565b8015610c885780601f10610c5d57610100808354040283529160200191610c88565b820191906000526020600020905b815481529060010190602001808311610c6b57829003601f168201915b50505050508152602001600182018054610ca190611a2b565b80601f0160208091040260200160405190810160405280929190818152602001828054610ccd90611a2b565b8015610d1a5780601f10610cef57610100808354040283529160200191610d1a565b820191906000526020600020905b815481529060010190602001808311610cfd57829003601f168201915b50505050508152602001600282018054610d3390611a2b565b80601f0160208091040260200160405190810160405280929190818152602001828054610d5f90611a2b565b8015610dac5780601f10610d8157610100808354040283529160200191610dac565b820191906000526020600020905b815481529060010190602001808311610d8f57829003601f168201915b50505050508152505090806006018054610dc590611a2b565b80601f0160208091040260200160405190810160405280929190818152602001828054610df190611a2b565b8015610e3e5780601f10610e1357610100808354040283529160200191610e3e565b820191906000526020600020905b815481529060010190602001808311610e2157829003601f168201915b505050505090806007018054610e5390611a2b565b80601f0160208091040260200160405190810160405280929190818152602001828054610e7f90611a2b565b8015610ecc5780601f10610ea157610100808354040283529160200191610ecc565b820191906000526020600020905b815481529060010190602001808311610eaf57829003601f168201915b50505050509080600801549080600901549080600a018054610eed90611a2b565b80601f0160208091040260200160405190810160405280929190818152602001828054610f1990611a2b565b8015610f665780601f10610f3b57610100808354040283529160200191610f66565b820191906000526020600020905b815481529060010190602001808311610f4957829003601f168201915b50505050509080600b018054610f7b90611a2b565b80601f0160208091040260200160405190810160405280929190818152602001828054610fa790611a2b565b8015610ff45780601f10610fc957610100808354040283529160200191610ff4565b820191906000526020600020905b815481529060010190602001808311610fd757829003601f168201915b505050505090508a565b600060036000838152602001908152602001600020549050919050565b600060036000838152602001908152602001600020549050919050565b816002600082815260200190815260200160002060009054906101000a900473ffffffffffffffffffffffffffffffffffffffff1673ffffffffffffffffffffffffffffffffffffffff163373ffffffffffffffffffffffffffffffffffffffff16146110da576040517f08c379a00000000000000000000000000000000000000000000000000000000081526004016110d190611f24565b60405180910390fd5b600360008481526020019081526020016000205434146110f957600080fd5b6000600160009054906101000a900473ffffffffffffffffffffffffffffffffffffffff1673ffffffffffffffffffffffffffffffffffffffff164760405161114190611f75565b60006040518083038185875af1925050503d806000811461117e576040519150601f19603f3d011682016040523d82523d6000602084013e611183565b606091505b50509050806111c7576040517f08c379a00000000000000000000000000000000000000000000000000000000081526004016111be90611fd6565b60405180910390fd5b60008054906101000a900473ffffffffffffffffffffffffffffffffffffffff1673ffffffffffffffffffffffffffffffffffffffff166323b872dd306002600088815260200190815260200160002060009054906101000a900473ffffffffffffffffffffffffffffffffffffffff16866040518463ffffffff1660e01b815260040161125793929190611ff6565b600060405180830381600087803b15801561127157600080fd5b505af1158015611285573d6000803e3d6000fd5b5050505060006004600086815260200190815260200160002060006101000a81548160ff02191690831515021790555050505050565b60046020528060005260406000206000915054906101000a900460ff1681565b6000604051905090565b600080fd5b600080fd5b6000819050919050565b611302816112ef565b811461130d57600080fd5b50565b60008135905061131f816112f9565b92915050565b600080fd5b600080fd5b6000601f19601f8301169050919050565b7f4e487b7100000000000000000000000000000000000000000000000000000000600052604160045260246000fd5b6113788261132f565b810181811067ffffffffffffffff8211171561139757611396611340565b5b80604052505050565b60006113aa6112db565b90506113b6828261136f565b919050565b600067ffffffffffffffff8211156113d6576113d5611340565b5b6113df8261132f565b9050602081019050919050565b82818337600083830152505050565b600061140e611409846113bb565b6113a0565b90508281526020810184848401111561142a5761142961132a565b5b6114358482856113ec565b509392505050565b600082601f83011261145257611451611325565b5b81356114628482602086016113fb565b91505092915050565b60008060008060808587031215611485576114846112e5565b5b600061149387828801611310565b945050602085013567ffffffffffffffff8111156114b4576114b36112ea565b5b6114c08782880161143d565b935050604085013567ffffffffffffffff8111156114e1576114e06112ea565b5b6114ed8782880161143d565b925050606085013567ffffffffffffffff81111561150e5761150d6112ea565b5b61151a8782880161143d565b91505092959194509250565b60006020828403121561153c5761153b6112e5565b5b600061154a84828501611310565b91505092915050565b60008115159050919050565b61156881611553565b82525050565b6000602082019050611583600083018461155f565b92915050565b600073ffffffffffffffffffffffffffffffffffffffff82169050919050565b60006115b482611589565b9050919050565b6115c4816115a9565b82525050565b60006020820190506115df60008301846115bb565b92915050565b6115ee816112ef565b82525050565b600060208201905061160960008301846115e5565b92915050565b600080600080600080600080610100898b0312156116305761162f6112e5565b5b600061163e8b828c01611310565b985050602089013567ffffffffffffffff81111561165f5761165e6112ea565b5b61166b8b828c0161143d565b975050604061167c8b828c01611310565b965050606061168d8b828c01611310565b955050608089013567ffffffffffffffff8111156116ae576116ad6112ea565b5b6116ba8b828c0161143d565b94505060a089013567ffffffffffffffff8111156116db576116da6112ea565b5b6116e78b828c0161143d565b93505060c06116f88b828c01611310565b92505060e06117098b828c01611310565b9150509295985092959890939650565b600061172482611589565b9050919050565b61173481611719565b82525050565b600060208201905061174f600083018461172b565b92915050565b61175e81611719565b811461176957600080fd5b50565b60008135905061177b81611755565b92915050565b60008060408385031215611798576117976112e5565b5b60006117a685828601611310565b92505060206117b78582860161176c565b9150509250929050565b600081519050919050565b600082825260208201905092915050565b60005b838110156117fb5780820151818401526020810190506117e0565b60008484015250505050565b6000611812826117c1565b61181c81856117cc565b935061182c8185602086016117dd565b6118358161132f565b840191505092915050565b600082825260208201905092915050565b600061185c826117c1565b6118668185611840565b93506118768185602086016117dd565b61187f8161132f565b840191505092915050565b600060608301600083015184820360008601526118a78282611851565b915050602083015184820360208601526118c18282611851565b915050604083015184820360408601526118db8282611851565b9150508091505092915050565b6000610140820190508181036000830152611903818d611807565b90508181036020830152611917818c611807565b9050818103604083015261192b818b611807565b9050818103606083015261193f818a61188a565b905081810360808301526119538189611807565b905081810360a08301526119678188611807565b905061197660c08301876115e5565b61198360e08301866115e5565b8181036101008301526119968185611807565b90508181036101208301526119ab8184611807565b90509b9a5050505050505050505050565b600080604083850312156119d3576119d26112e5565b5b60006119e185828601611310565b92505060206119f285828601611310565b9150509250929050565b7f4e487b7100000000000000000000000000000000000000000000000000000000600052602260045260246000fd5b60006002820490506001821680611a4357607f821691505b602082108103611a5657611a556119fc565b5b50919050565b60008190508160005260206000209050919050565b60006020601f8301049050919050565b600082821b905092915050565b600060088302611abe7fffffffffffffffffffffffffffffffffffffffffffffffffffffffffffffffff82611a81565b611ac88683611a81565b95508019841693508086168417925050509392505050565b6000819050919050565b6000611b05611b00611afb846112ef565b611ae0565b6112ef565b9050919050565b6000819050919050565b611b1f83611aea565b611b33611b2b82611b0c565b848454611a8e565b825550505050565b600090565b611b48611b3b565b611b53818484611b16565b505050565b5b81811015611b7757611b6c600082611b40565b600181019050611b59565b5050565b601f821115611bbc57611b8d81611a5c565b611b9684611a71565b81016020851015611ba5578190505b611bb9611bb185611a71565b830182611b58565b50505b505050565b600082821c905092915050565b6000611bdf60001984600802611bc1565b1980831691505092915050565b6000611bf88383611bce565b9150826002028217905092915050565b611c11826117c1565b67ffffffffffffffff811115611c2a57611c29611340565b5b611c348254611a2b565b611c3f828285611b7b565b600060209050601f831160018114611c725760008415611c60578287015190505b611c6a8582611bec565b865550611cd2565b601f198416611c8086611a5c565b60005b82811015611ca857848901518255600182019150602085019450602081019050611c83565b86831015611cc55784890151611cc1601f891682611bce565b8355505b6001600288020188555050505b505050505050565b6000611cf5611cf0611ceb84611589565b611ae0565b611589565b9050919050565b6000611d0782611cda565b9050919050565b6000611d1982611cfc565b9050919050565b611d2981611d0e565b82525050565b6000606082019050611d446000830186611d20565b611d51602083018561172b565b611d5e60408301846115e5565b949350505050565b7f4e487b7100000000000000000000000000000000000000000000000000000000600052601160045260246000fd5b6000611da0826112ef565b9150611dab836112ef565b9250828201905080821115611dc357611dc2611d66565b5b92915050565b7f4f6e6c792073656c6c65722063616e2063616e63656c207468652073616c6500600082015250565b6000611dff601f836117cc565b9150611e0a82611dc9565b602082019050919050565b60006020820190508181036000830152611e2e81611df2565b9050919050565b7f4e4654206973206e6f74206c697374656420666f722073616c65000000000000600082015250565b6000611e6b601a836117cc565b9150611e7682611e35565b602082019050919050565b60006020820190508181036000830152611e9a81611e5e565b9050919050565b6000606082019050611eb6600083018661172b565b611ec36020830185611d20565b611ed060408301846115e5565b949350505050565b7f4f6e6c792062757965722063616e207573652074686973206d6574686f640000600082015250565b6000611f0e601e836117cc565b9150611f1982611ed8565b602082019050919050565b60006020820190508181036000830152611f3d81611f01565b9050919050565b600081905092915050565b50565b6000611f5f600083611f44565b9150611f6a82611f4f565b600082019050919050565b6000611f8082611f52565b9150819050919050565b7f5472616e73666572204661696c65640000000000000000000000000000000000600082015250565b6000611fc0600f836117cc565b9150611fcb82611f8a565b602082019050919050565b60006020820190508181036000830152611fef81611fb3565b9050919050565b600060608201905061200b600083018661172b565b612018602083018561172b565b61202560408301846115e5565b94935050505056fea26469706673582212205fe0418acc8cf0bb03837e18c84009141373233ee6baf6149f488aea410298e964736f6c63430008110033",
  "linkReferences": {},
  "deployedLinkReferences": {}
}