{
  "_format": "hh-sol-artifact-1",
  "contractName": "RealEstate",
  "sourceName": "contracts/RealEstate.sol",
  "abi": [
    {
      "inputs": [],
      "stateMutability": "nonpayable",
      "type": "constructor"
    },
    {
      "anonymous": false,
      "inputs": [
        {
          "indexed": true,
          "internalType": "address",
          "name": "owner",
          "type": "address"
        },
        {
          "indexed": true,
          "internalType": "address",
          "name": "approved",
          "type": "address"
        },
        {
          "indexed": true,
          "internalType": "uint256",
          "name": "tokenId",
          "type": "uint256"
        }
      ],
      "name": "Approval",
      "type": "event"
    },
    {
      "anonymous": false,
      "inputs": [
        {
          "indexed": true,
          "internalType": "address",
          "name": "owner",
          "type": "address"
        },
        {
          "indexed": true,
          "internalType": "address",
          "name": "operator",
          "type": "address"
        },
        {
          "indexed": false,
          "internalType": "bool",
          "name": "approved",
          "type": "bool"
        }
      ],
      "name": "ApprovalForAll",
      "type": "event"
    },
    {
      "anonymous": false,
      "inputs": [
        {
          "indexed": true,
          "internalType": "address",
          "name": "from",
          "type": "address"
        },
        {
          "indexed": true,
          "internalType": "address",
          "name": "to",
          "type": "address"
        },
        {
          "indexed": true,
          "internalType": "uint256",
          "name": "tokenId",
          "type": "uint256"
        }
      ],
      "name": "Transfer",
      "type": "event"
    },
    {
      "inputs": [
        {
          "internalType": "address",
          "name": "to",
          "type": "address"
        },
        {
          "internalType": "uint256",
          "name": "tokenId",
          "type": "uint256"
        }
      ],
      "name": "approve",
      "outputs": [],
      "stateMutability": "nonpayable",
      "type": "function"
    },
    {
      "inputs": [
        {
          "internalType": "address",
          "name": "owner",
          "type": "address"
        }
      ],
      "name": "balanceOf",
      "outputs": [
        {
          "internalType": "uint256",
          "name": "",
          "type": "uint256"
        }
      ],
      "stateMutability": "view",
      "type": "function"
    },
    {
      "inputs": [
        {
          "internalType": "uint256",
          "name": "tokenId",
          "type": "uint256"
        }
      ],
      "name": "getApproved",
      "outputs": [
        {
          "internalType": "address",
          "name": "",
          "type": "address"
        }
      ],
      "stateMutability": "view",
      "type": "function"
    },
    {
      "inputs": [
        {
          "internalType": "address",
          "name": "owner",
          "type": "address"
        },
        {
          "internalType": "address",
          "name": "operator",
          "type": "address"
        }
      ],
      "name": "isApprovedForAll",
      "outputs": [
        {
          "internalType": "bool",
          "name": "",
          "type": "bool"
        }
      ],
      "stateMutability": "view",
      "type": "function"
    },
    {
      "inputs": [
        {
          "internalType": "string",
          "name": "tokenURI",
          "type": "string"
        }
      ],
      "name": "mint",
      "outputs": [
        {
          "internalType": "uint256",
          "name": "",
          "type": "uint256"
        }
      ],
      "stateMutability": "nonpayable",
      "type": "function"
    },
    {
      "inputs": [],
      "name": "name",
      "outputs": [
        {
          "internalType": "string",
          "name": "",
          "type": "string"
        }
      ],
      "stateMutability": "view",
      "type": "function"
    },
    {
      "inputs": [
        {
          "internalType": "uint256",
          "name": "tokenId",
          "type": "uint256"
        }
      ],
      "name": "ownerOf",
      "outputs": [
        {
          "internalType": "address",
          "name": "",
          "type": "address"
        }
      ],
      "stateMutability": "view",
      "type": "function"
    },
    {
      "inputs": [
        {
          "internalType": "address",
          "name": "from",
          "type": "address"
        },
        {
          "internalType": "address",
          "name": "to",
          "type": "address"
        },
        {
          "internalType": "uint256",
          "name": "tokenId",
          "type": "uint256"
        }
      ],
      "name": "safeTransferFrom",
      "outputs": [],
      "stateMutability": "nonpayable",
      "type": "function"
    },
    {
      "inputs": [
        {
          "internalType": "address",
          "name": "from",
          "type": "address"
        },
        {
          "internalType": "address",
          "name": "to",
          "type": "address"
        },
        {
          "internalType": "uint256",
          "name": "tokenId",
          "type": "uint256"
        },
        {
          "internalType": "bytes",
          "name": "data",
          "type": "bytes"
        }
      ],
      "name": "safeTransferFrom",
      "outputs": [],
      "stateMutability": "nonpayable",
      "type": "function"
    },
    {
      "inputs": [
        {
          "internalType": "address",
          "name": "operator",
          "type": "address"
        },
        {
          "internalType": "bool",
          "name": "approved",
          "type": "bool"
        }
      ],
      "name": "setApprovalForAll",
      "outputs": [],
      "stateMutability": "nonpayable",
      "type": "function"
    },
    {
      "inputs": [
        {
          "internalType": "bytes4",
          "name": "interfaceId",
          "type": "bytes4"
        }
      ],
      "name": "supportsInterface",
      "outputs": [
        {
          "internalType": "bool",
          "name": "",
          "type": "bool"
        }
      ],
      "stateMutability": "view",
      "type": "function"
    },
    {
      "inputs": [],
      "name": "symbol",
      "outputs": [
        {
          "internalType": "string",
          "name": "",
          "type": "string"
        }
      ],
      "stateMutability": "view",
      "type": "function"
    },
    {
      "inputs": [
        {
          "internalType": "uint256",
          "name": "tokenId",
          "type": "uint256"
        }
      ],
      "name": "tokenURI",
      "outputs": [
        {
          "internalType": "string",
          "name": "",
          "type": "string"
        }
      ],
      "stateMutability": "view",
      "type": "function"
    },
    {
      "inputs": [],
      "name": "totalSupply",
      "outputs": [
        {
          "internalType": "uint256",
          "name": "",
          "type": "uint256"
        }
      ],
      "stateMutability": "view",
      "type": "function"
    },
    {
      "inputs": [
        {
          "internalType": "address",
          "name": "from",
          "type": "address"
        },
        {
          "internalType": "address",
          "name": "to",
          "type": "address"
        },
        {
          "internalType": "uint256",
          "name": "tokenId",
          "type": "uint256"
        }
      ],
      "name": "transferFrom",
      "outputs": [],
      "stateMutability": "nonpayable",
      "type": "function"
    }
  ],
  "bytecode": "0x60806040523480156200001157600080fd5b506040518060400160405280600a81526020017f5265616c207374617465000000000000000000000000000000000000000000008152506040518060400160405280600481526020017f5245414c0000000000000000000000000000000000000000000000000000000081525081600090816200008f919062000324565b508060019081620000a1919062000324565b5050506200040b565b600081519050919050565b7f4e487b7100000000000000000000000000000000000000000000000000000000600052604160045260246000fd5b7f4e487b7100000000000000000000000000000000000000000000000000000000600052602260045260246000fd5b600060028204905060018216806200012c57607f821691505b602082108103620001425762000141620000e4565b5b50919050565b60008190508160005260206000209050919050565b60006020601f8301049050919050565b600082821b905092915050565b600060088302620001ac7fffffffffffffffffffffffffffffffffffffffffffffffffffffffffffffffff826200016d565b620001b886836200016d565b95508019841693508086168417925050509392505050565b6000819050919050565b6000819050919050565b600062000205620001ff620001f984620001d0565b620001da565b620001d0565b9050919050565b6000819050919050565b6200022183620001e4565b6200023962000230826200020c565b8484546200017a565b825550505050565b600090565b6200025062000241565b6200025d81848462000216565b505050565b5b8181101562000285576200027960008262000246565b60018101905062000263565b5050565b601f821115620002d4576200029e8162000148565b620002a9846200015d565b81016020851015620002b9578190505b620002d1620002c8856200015d565b83018262000262565b50505b505050565b600082821c905092915050565b6000620002f960001984600802620002d9565b1980831691505092915050565b6000620003148383620002e6565b9150826002028217905092915050565b6200032f82620000aa565b67ffffffffffffffff8111156200034b576200034a620000b5565b5b62000357825462000113565b6200036482828562000289565b600060209050601f8311600181146200039c576000841562000387578287015190505b62000393858262000306565b86555062000403565b601f198416620003ac8662000148565b60005b82811015620003d657848901518255600182019150602085019450602081019050620003af565b86831015620003f65784890151620003f2601f891682620002e6565b8355505b6001600288020188555050505b505050505050565b612a6e806200041b6000396000f3fe608060405234801561001057600080fd5b50600436106100f55760003560e01c80636352211e11610097578063b88d4fde11610066578063b88d4fde14610284578063c87b56dd146102a0578063d85d3d27146102d0578063e985e9c514610300576100f5565b80636352211e146101ea57806370a082311461021a57806395d89b411461024a578063a22cb46514610268576100f5565b8063095ea7b3116100d3578063095ea7b31461017857806318160ddd1461019457806323b872dd146101b257806342842e0e146101ce576100f5565b806301ffc9a7146100fa57806306fdde031461012a578063081812fc14610148575b600080fd5b610114600480360381019061010f9190611970565b610330565b60405161012191906119b8565b60405180910390f35b610132610412565b60405161013f9190611a63565b60405180910390f35b610162600480360381019061015d9190611abb565b6104a4565b60405161016f9190611b29565b60405180910390f35b610192600480360381019061018d9190611b70565b6104ea565b005b61019c610601565b6040516101a99190611bbf565b60405180910390f35b6101cc60048036038101906101c79190611bda565b610612565b005b6101e860048036038101906101e39190611bda565b610672565b005b61020460048036038101906101ff9190611abb565b610692565b6040516102119190611b29565b60405180910390f35b610234600480360381019061022f9190611c2d565b610718565b6040516102419190611bbf565b60405180910390f35b6102526107cf565b60405161025f9190611a63565b60405180910390f35b610282600480360381019061027d9190611c86565b610861565b005b61029e60048036038101906102999190611dfb565b610877565b005b6102ba60048036038101906102b59190611abb565b6108d9565b6040516102c79190611a63565b60405180910390f35b6102ea60048036038101906102e59190611f1f565b6109eb565b6040516102f79190611bbf565b60405180910390f35b61031a60048036038101906103159190611f68565b610a22565b60405161032791906119b8565b60405180910390f35b60007f80ac58cd000000000000000000000000000000000000000000000000000000007bffffffffffffffffffffffffffffffffffffffffffffffffffffffff1916827bffffffffffffffffffffffffffffffffffffffffffffffffffffffff191614806103fb57507f5b5e139f000000000000000000000000000000000000000000000000000000007bffffffffffffffffffffffffffffffffffffffffffffffffffffffff1916827bffffffffffffffffffffffffffffffffffffffffffffffffffffffff1916145b8061040b575061040a82610ab6565b5b9050919050565b60606000805461042190611fd7565b80601f016020809104026020016040519081016040528092919081815260200182805461044d90611fd7565b801561049a5780601f1061046f5761010080835404028352916020019161049a565b820191906000526020600020905b81548152906001019060200180831161047d57829003601f168201915b5050505050905090565b60006104af82610b20565b6004600083815260200190815260200160002060009054906101000a900473ffffffffffffffffffffffffffffffffffffffff169050919050565b60006104f582610692565b90508073ffffffffffffffffffffffffffffffffffffffff168373ffffffffffffffffffffffffffffffffffffffff1603610565576040517f08c379a000000000000000000000000000000000000000000000000000000000815260040161055c9061207a565b60405180910390fd5b8073ffffffffffffffffffffffffffffffffffffffff16610584610b6b565b73ffffffffffffffffffffffffffffffffffffffff1614806105b357506105b2816105ad610b6b565b610a22565b5b6105f2576040517f08c379a00000000000000000000000000000000000000000000000000000000081526004016105e99061210c565b60405180910390fd5b6105fc8383610b73565b505050565b600061060d6007610c2c565b905090565b61062361061d610b6b565b82610c3a565b610662576040517f08c379a00000000000000000000000000000000000000000000000000000000081526004016106599061219e565b60405180910390fd5b61066d838383610ccf565b505050565b61068d83838360405180602001604052806000815250610877565b505050565b60008061069e83610fc8565b9050600073ffffffffffffffffffffffffffffffffffffffff168173ffffffffffffffffffffffffffffffffffffffff160361070f576040517f08c379a00000000000000000000000000000000000000000000000000000000081526004016107069061220a565b60405180910390fd5b80915050919050565b60008073ffffffffffffffffffffffffffffffffffffffff168273ffffffffffffffffffffffffffffffffffffffff1603610788576040517f08c379a000000000000000000000000000000000000000000000000000000000815260040161077f9061229c565b60405180910390fd5b600360008373ffffffffffffffffffffffffffffffffffffffff1673ffffffffffffffffffffffffffffffffffffffff168152602001908152602001600020549050919050565b6060600180546107de90611fd7565b80601f016020809104026020016040519081016040528092919081815260200182805461080a90611fd7565b80156108575780601f1061082c57610100808354040283529160200191610857565b820191906000526020600020905b81548152906001019060200180831161083a57829003601f168201915b5050505050905090565b61087361086c610b6b565b8383611005565b5050565b610888610882610b6b565b83610c3a565b6108c7576040517f08c379a00000000000000000000000000000000000000000000000000000000081526004016108be9061219e565b60405180910390fd5b6108d384848484611171565b50505050565b60606108e482610b20565b600060066000848152602001908152602001600020805461090490611fd7565b80601f016020809104026020016040519081016040528092919081815260200182805461093090611fd7565b801561097d5780601f106109525761010080835404028352916020019161097d565b820191906000526020600020905b81548152906001019060200180831161096057829003601f168201915b50505050509050600061098e6111cd565b905060008151036109a35781925050506109e6565b6000825111156109d85780826040516020016109c09291906122f8565b604051602081830303815290604052925050506109e6565b6109e1846111e4565b925050505b919050565b60006109f7600761124c565b6000610a036007610c2c565b9050610a0f3382611262565b610a19818461147f565b80915050919050565b6000600560008473ffffffffffffffffffffffffffffffffffffffff1673ffffffffffffffffffffffffffffffffffffffff16815260200190815260200160002060008373ffffffffffffffffffffffffffffffffffffffff1673ffffffffffffffffffffffffffffffffffffffff16815260200190815260200160002060009054906101000a900460ff16905092915050565b60007f01ffc9a7000000000000000000000000000000000000000000000000000000007bffffffffffffffffffffffffffffffffffffffffffffffffffffffff1916827bffffffffffffffffffffffffffffffffffffffffffffffffffffffff1916149050919050565b610b29816114ec565b610b68576040517f08c379a0000000000000000000000000000000000000000000000000000000008152600401610b5f9061220a565b60405180910390fd5b50565b600033905090565b816004600083815260200190815260200160002060006101000a81548173ffffffffffffffffffffffffffffffffffffffff021916908373ffffffffffffffffffffffffffffffffffffffff160217905550808273ffffffffffffffffffffffffffffffffffffffff16610be683610692565b73ffffffffffffffffffffffffffffffffffffffff167f8c5be1e5ebec7d5bd14f71427d1e84f3dd0314c0f7b2291e5b200ac8c7c3b92560405160405180910390a45050565b600081600001549050919050565b600080610c4683610692565b90508073ffffffffffffffffffffffffffffffffffffffff168473ffffffffffffffffffffffffffffffffffffffff161480610c885750610c878185610a22565b5b80610cc657508373ffffffffffffffffffffffffffffffffffffffff16610cae846104a4565b73ffffffffffffffffffffffffffffffffffffffff16145b91505092915050565b8273ffffffffffffffffffffffffffffffffffffffff16610cef82610692565b73ffffffffffffffffffffffffffffffffffffffff1614610d45576040517f08c379a0000000000000000000000000000000000000000000000000000000008152600401610d3c9061238e565b60405180910390fd5b600073ffffffffffffffffffffffffffffffffffffffff168273ffffffffffffffffffffffffffffffffffffffff1603610db4576040517f08c379a0000000000000000000000000000000000000000000000000000000008152600401610dab90612420565b60405180910390fd5b610dc1838383600161152d565b8273ffffffffffffffffffffffffffffffffffffffff16610de182610692565b73ffffffffffffffffffffffffffffffffffffffff1614610e37576040517f08c379a0000000000000000000000000000000000000000000000000000000008152600401610e2e9061238e565b60405180910390fd5b6004600082815260200190815260200160002060006101000a81549073ffffffffffffffffffffffffffffffffffffffff02191690556001600360008573ffffffffffffffffffffffffffffffffffffffff1673ffffffffffffffffffffffffffffffffffffffff168152602001908152602001600020600082825403925050819055506001600360008473ffffffffffffffffffffffffffffffffffffffff1673ffffffffffffffffffffffffffffffffffffffff16815260200190815260200160002060008282540192505081905550816002600083815260200190815260200160002060006101000a81548173ffffffffffffffffffffffffffffffffffffffff021916908373ffffffffffffffffffffffffffffffffffffffff160217905550808273ffffffffffffffffffffffffffffffffffffffff168473ffffffffffffffffffffffffffffffffffffffff167fddf252ad1be2c89b69c2b068fc378daa952ba7f163c4a11628f55a4df523b3ef60405160405180910390a4610fc38383836001611533565b505050565b60006002600083815260200190815260200160002060009054906101000a900473ffffffffffffffffffffffffffffffffffffffff169050919050565b8173ffffffffffffffffffffffffffffffffffffffff168373ffffffffffffffffffffffffffffffffffffffff1603611073576040517f08c379a000000000000000000000000000000000000000000000000000000000815260040161106a9061248c565b60405180910390fd5b80600560008573ffffffffffffffffffffffffffffffffffffffff1673ffffffffffffffffffffffffffffffffffffffff16815260200190815260200160002060008473ffffffffffffffffffffffffffffffffffffffff1673ffffffffffffffffffffffffffffffffffffffff16815260200190815260200160002060006101000a81548160ff0219169083151502179055508173ffffffffffffffffffffffffffffffffffffffff168373ffffffffffffffffffffffffffffffffffffffff167f17307eab39ab6107e8899845ad3d59bd9653f200f220920489ca2b5937696c318360405161116491906119b8565b60405180910390a3505050565b61117c848484610ccf565b61118884848484611539565b6111c7576040517f08c379a00000000000000000000000000000000000000000000000000000000081526004016111be9061251e565b60405180910390fd5b50505050565b606060405180602001604052806000815250905090565b60606111ef82610b20565b60006111f96111cd565b905060008151116112195760405180602001604052806000815250611244565b80611223846116c0565b6040516020016112349291906122f8565b6040516020818303038152906040525b915050919050565b6001816000016000828254019250508190555050565b600073ffffffffffffffffffffffffffffffffffffffff168273ffffffffffffffffffffffffffffffffffffffff16036112d1576040517f08c379a00000000000000000000000000000000000000000000000000000000081526004016112c89061258a565b60405180910390fd5b6112da816114ec565b1561131a576040517f08c379a0000000000000000000000000000000000000000000000000000000008152600401611311906125f6565b60405180910390fd5b61132860008383600161152d565b611331816114ec565b15611371576040517f08c379a0000000000000000000000000000000000000000000000000000000008152600401611368906125f6565b60405180910390fd5b6001600360008473ffffffffffffffffffffffffffffffffffffffff1673ffffffffffffffffffffffffffffffffffffffff16815260200190815260200160002060008282540192505081905550816002600083815260200190815260200160002060006101000a81548173ffffffffffffffffffffffffffffffffffffffff021916908373ffffffffffffffffffffffffffffffffffffffff160217905550808273ffffffffffffffffffffffffffffffffffffffff16600073ffffffffffffffffffffffffffffffffffffffff167fddf252ad1be2c89b69c2b068fc378daa952ba7f163c4a11628f55a4df523b3ef60405160405180910390a461147b600083836001611533565b5050565b611488826114ec565b6114c7576040517f08c379a00000000000000000000000000000000000000000000000000000000081526004016114be90612688565b60405180910390fd5b806006600084815260200190815260200160002090816114e79190612854565b505050565b60008073ffffffffffffffffffffffffffffffffffffffff1661150e83610fc8565b73ffffffffffffffffffffffffffffffffffffffff1614159050919050565b50505050565b50505050565b600061155a8473ffffffffffffffffffffffffffffffffffffffff1661178e565b156116b3578373ffffffffffffffffffffffffffffffffffffffff1663150b7a02611583610b6b565b8786866040518563ffffffff1660e01b81526004016115a5949392919061297b565b6020604051808303816000875af19250505080156115e157506040513d601f19601f820116820180604052508101906115de91906129dc565b60015b611663573d8060008114611611576040519150601f19603f3d011682016040523d82523d6000602084013e611616565b606091505b50600081510361165b576040517f08c379a00000000000000000000000000000000000000000000000000000000081526004016116529061251e565b60405180910390fd5b805181602001fd5b63150b7a0260e01b7bffffffffffffffffffffffffffffffffffffffffffffffffffffffff1916817bffffffffffffffffffffffffffffffffffffffffffffffffffffffff1916149150506116b8565b600190505b949350505050565b6060600060016116cf846117b1565b01905060008167ffffffffffffffff8111156116ee576116ed611cd0565b5b6040519080825280601f01601f1916602001820160405280156117205781602001600182028036833780820191505090505b509050600082602001820190505b600115611783578080600190039150507f3031323334353637383961626364656600000000000000000000000000000000600a86061a8153600a858161177757611776612a09565b5b0494506000850361172e575b819350505050919050565b6000808273ffffffffffffffffffffffffffffffffffffffff163b119050919050565b600080600090507a184f03e93ff9f4daa797ed6e38ed64bf6a1f010000000000000000831061180f577a184f03e93ff9f4daa797ed6e38ed64bf6a1f010000000000000000838161180557611804612a09565b5b0492506040810190505b6d04ee2d6d415b85acef8100000000831061184c576d04ee2d6d415b85acef8100000000838161184257611841612a09565b5b0492506020810190505b662386f26fc10000831061187b57662386f26fc10000838161187157611870612a09565b5b0492506010810190505b6305f5e10083106118a4576305f5e100838161189a57611899612a09565b5b0492506008810190505b61271083106118c95761271083816118bf576118be612a09565b5b0492506004810190505b606483106118ec57606483816118e2576118e1612a09565b5b0492506002810190505b600a83106118fb576001810190505b80915050919050565b6000604051905090565b600080fd5b600080fd5b60007fffffffff0000000000000000000000000000000000000000000000000000000082169050919050565b61194d81611918565b811461195857600080fd5b50565b60008135905061196a81611944565b92915050565b6000602082840312156119865761198561190e565b5b60006119948482850161195b565b91505092915050565b60008115159050919050565b6119b28161199d565b82525050565b60006020820190506119cd60008301846119a9565b92915050565b600081519050919050565b600082825260208201905092915050565b60005b83811015611a0d5780820151818401526020810190506119f2565b60008484015250505050565b6000601f19601f8301169050919050565b6000611a35826119d3565b611a3f81856119de565b9350611a4f8185602086016119ef565b611a5881611a19565b840191505092915050565b60006020820190508181036000830152611a7d8184611a2a565b905092915050565b6000819050919050565b611a9881611a85565b8114611aa357600080fd5b50565b600081359050611ab581611a8f565b92915050565b600060208284031215611ad157611ad061190e565b5b6000611adf84828501611aa6565b91505092915050565b600073ffffffffffffffffffffffffffffffffffffffff82169050919050565b6000611b1382611ae8565b9050919050565b611b2381611b08565b82525050565b6000602082019050611b3e6000830184611b1a565b92915050565b611b4d81611b08565b8114611b5857600080fd5b50565b600081359050611b6a81611b44565b92915050565b60008060408385031215611b8757611b8661190e565b5b6000611b9585828601611b5b565b9250506020611ba685828601611aa6565b9150509250929050565b611bb981611a85565b82525050565b6000602082019050611bd46000830184611bb0565b92915050565b600080600060608486031215611bf357611bf261190e565b5b6000611c0186828701611b5b565b9350506020611c1286828701611b5b565b9250506040611c2386828701611aa6565b9150509250925092565b600060208284031215611c4357611c4261190e565b5b6000611c5184828501611b5b565b91505092915050565b611c638161199d565b8114611c6e57600080fd5b50565b600081359050611c8081611c5a565b92915050565b60008060408385031215611c9d57611c9c61190e565b5b6000611cab85828601611b5b565b9250506020611cbc85828601611c71565b9150509250929050565b600080fd5b600080fd5b7f4e487b7100000000000000000000000000000000000000000000000000000000600052604160045260246000fd5b611d0882611a19565b810181811067ffffffffffffffff82111715611d2757611d26611cd0565b5b80604052505050565b6000611d3a611904565b9050611d468282611cff565b919050565b600067ffffffffffffffff821115611d6657611d65611cd0565b5b611d6f82611a19565b9050602081019050919050565b82818337600083830152505050565b6000611d9e611d9984611d4b565b611d30565b905082815260208101848484011115611dba57611db9611ccb565b5b611dc5848285611d7c565b509392505050565b600082601f830112611de257611de1611cc6565b5b8135611df2848260208601611d8b565b91505092915050565b60008060008060808587031215611e1557611e1461190e565b5b6000611e2387828801611b5b565b9450506020611e3487828801611b5b565b9350506040611e4587828801611aa6565b925050606085013567ffffffffffffffff811115611e6657611e65611913565b5b611e7287828801611dcd565b91505092959194509250565b600067ffffffffffffffff821115611e9957611e98611cd0565b5b611ea282611a19565b9050602081019050919050565b6000611ec2611ebd84611e7e565b611d30565b905082815260208101848484011115611ede57611edd611ccb565b5b611ee9848285611d7c565b509392505050565b600082601f830112611f0657611f05611cc6565b5b8135611f16848260208601611eaf565b91505092915050565b600060208284031215611f3557611f3461190e565b5b600082013567ffffffffffffffff811115611f5357611f52611913565b5b611f5f84828501611ef1565b91505092915050565b60008060408385031215611f7f57611f7e61190e565b5b6000611f8d85828601611b5b565b9250506020611f9e85828601611b5b565b9150509250929050565b7f4e487b7100000000000000000000000000000000000000000000000000000000600052602260045260246000fd5b60006002820490506001821680611fef57607f821691505b60208210810361200257612001611fa8565b5b50919050565b7f4552433732313a20617070726f76616c20746f2063757272656e74206f776e6560008201527f7200000000000000000000000000000000000000000000000000000000000000602082015250565b60006120646021836119de565b915061206f82612008565b604082019050919050565b6000602082019050818103600083015261209381612057565b9050919050565b7f4552433732313a20617070726f76652063616c6c6572206973206e6f7420746f60008201527f6b656e206f776e6572206f7220617070726f76656420666f7220616c6c000000602082015250565b60006120f6603d836119de565b91506121018261209a565b604082019050919050565b60006020820190508181036000830152612125816120e9565b9050919050565b7f4552433732313a2063616c6c6572206973206e6f7420746f6b656e206f776e6560008201527f72206f7220617070726f76656400000000000000000000000000000000000000602082015250565b6000612188602d836119de565b91506121938261212c565b604082019050919050565b600060208201905081810360008301526121b78161217b565b9050919050565b7f4552433732313a20696e76616c696420746f6b656e2049440000000000000000600082015250565b60006121f46018836119de565b91506121ff826121be565b602082019050919050565b60006020820190508181036000830152612223816121e7565b9050919050565b7f4552433732313a2061646472657373207a65726f206973206e6f74206120766160008201527f6c6964206f776e65720000000000000000000000000000000000000000000000602082015250565b60006122866029836119de565b91506122918261222a565b604082019050919050565b600060208201905081810360008301526122b581612279565b9050919050565b600081905092915050565b60006122d2826119d3565b6122dc81856122bc565b93506122ec8185602086016119ef565b80840191505092915050565b600061230482856122c7565b915061231082846122c7565b91508190509392505050565b7f4552433732313a207472616e736665722066726f6d20696e636f72726563742060008201527f6f776e6572000000000000000000000000000000000000000000000000000000602082015250565b60006123786025836119de565b91506123838261231c565b604082019050919050565b600060208201905081810360008301526123a78161236b565b9050919050565b7f4552433732313a207472616e7366657220746f20746865207a65726f2061646460008201527f7265737300000000000000000000000000000000000000000000000000000000602082015250565b600061240a6024836119de565b9150612415826123ae565b604082019050919050565b60006020820190508181036000830152612439816123fd565b9050919050565b7f4552433732313a20617070726f766520746f2063616c6c657200000000000000600082015250565b60006124766019836119de565b915061248182612440565b602082019050919050565b600060208201905081810360008301526124a581612469565b9050919050565b7f4552433732313a207472616e7366657220746f206e6f6e20455243373231526560008201527f63656976657220696d706c656d656e7465720000000000000000000000000000602082015250565b60006125086032836119de565b9150612513826124ac565b604082019050919050565b60006020820190508181036000830152612537816124fb565b9050919050565b7f4552433732313a206d696e7420746f20746865207a65726f2061646472657373600082015250565b60006125746020836119de565b915061257f8261253e565b602082019050919050565b600060208201905081810360008301526125a381612567565b9050919050565b7f4552433732313a20746f6b656e20616c7265616479206d696e74656400000000600082015250565b60006125e0601c836119de565b91506125eb826125aa565b602082019050919050565b6000602082019050818103600083015261260f816125d3565b9050919050565b7f45524337323155524953746f726167653a2055524920736574206f66206e6f6e60008201527f6578697374656e7420746f6b656e000000000000000000000000000000000000602082015250565b6000612672602e836119de565b915061267d82612616565b604082019050919050565b600060208201905081810360008301526126a181612665565b9050919050565b60008190508160005260206000209050919050565b60006020601f8301049050919050565b600082821b905092915050565b60006008830261270a7fffffffffffffffffffffffffffffffffffffffffffffffffffffffffffffffff826126cd565b61271486836126cd565b95508019841693508086168417925050509392505050565b6000819050919050565b600061275161274c61274784611a85565b61272c565b611a85565b9050919050565b6000819050919050565b61276b83612736565b61277f61277782612758565b8484546126da565b825550505050565b600090565b612794612787565b61279f818484612762565b505050565b5b818110156127c3576127b860008261278c565b6001810190506127a5565b5050565b601f821115612808576127d9816126a8565b6127e2846126bd565b810160208510156127f1578190505b6128056127fd856126bd565b8301826127a4565b50505b505050565b600082821c905092915050565b600061282b6000198460080261280d565b1980831691505092915050565b6000612844838361281a565b9150826002028217905092915050565b61285d826119d3565b67ffffffffffffffff81111561287657612875611cd0565b5b6128808254611fd7565b61288b8282856127c7565b600060209050601f8311600181146128be57600084156128ac578287015190505b6128b68582612838565b86555061291e565b601f1984166128cc866126a8565b60005b828110156128f4578489015182556001820191506020850194506020810190506128cf565b86831015612911578489015161290d601f89168261281a565b8355505b6001600288020188555050505b505050505050565b600081519050919050565b600082825260208201905092915050565b600061294d82612926565b6129578185612931565b93506129678185602086016119ef565b61297081611a19565b840191505092915050565b60006080820190506129906000830187611b1a565b61299d6020830186611b1a565b6129aa6040830185611bb0565b81810360608301526129bc8184612942565b905095945050505050565b6000815190506129d681611944565b92915050565b6000602082840312156129f2576129f161190e565b5b6000612a00848285016129c7565b91505092915050565b7f4e487b7100000000000000000000000000000000000000000000000000000000600052601260045260246000fdfea2646970667358221220c74cde0e4dca2a611719e870a64a6596071c4feeb412cbdc1d0868b5444417ff64736f6c63430008110033",
  "linkReferences": {},
  "deployedLinkReferences": {}
}